:020000040800F2
:10000000785700207D0200085B360008972D000815
:1000100049360008990300088140000800000000EC
:10002000000000000000000000000000C101000806
:100030000904000800000000150200088D390008BE
:10004000970200089702000897020008970200082C
:10005000970200089702000897020008970200081C
:10006000970200089702000897020008AD030008F5
:10007000B9030008C5030008D1030008DD03000828
:10008000E9030008F503000897020008970200083A
:1000900097020008970200089702000897020008DC
:1000A00097020008993A0008970200089702000892
:1000B00097020008970200089702000897020008BC
:1000C00097020008970200089702000897020008AC
:1000D000970200085D40000869400008754000086C
:1000E000970200089702000897020008970200088C
:1000F000970200089702000897020008970200087C
:10010000970200089702000897020008970200086B
:100110009702000897020008A53A0008C13A0008B3
:10012000970200089702000897020008970200084B
:10013000970200089702000897020008970200083B
:10014000970200089702000897020008970200082B
:10015000970200089702000897020008970200081B
:10016000970200089702000897020008970200080B
:10017000970200089702000897020008000000009C
:1001800097020008970200089702000897020008EB
:1001900097020008970200089702000897020008DB
:1001A000970200089702000897020008DFF80CD0B9
:1001B00000F0D8F800480047B14000087857002008
:1001C0002B4B19680868B0E8F04F80F30988BFF33B
:1001D0006F8F4FF0000080F311887047000000001F
:1001E00006480068006880F3088862B661B6BFF30D
:1001F0004F8FBFF36F8F00DF00BF00BF08ED00E03F
:10020000DFF80C00016841F470010160704700BF25
:1002100088ED00E0EFF30980BFF36F8F144B1A688D
:100220001EF0100F08BF20ED108A20E9F04F10607B
:1002300008B44FF0500080F31188BFF34F8FBFF325
:100240006F8F04F0C7FA4FF0000080F3118808BCEC
:1002500019680868B0E8F04F1EF0100F08BFB0EC46
:10026000108A80F30988BFF36F8F704700BF00BF0B
:1002700084000020EFF305807047000006488047A7
:1002800006480047FEE7FEE7FEE7FEE7FEE7FEE77B
:10029000FEE7FEE7FEE7FEE7553A0008AD0100087D
:1002A0002DE9F05F0546002092469B4688460646AB
:1002B000814640241BE0284641464746224600F03E
:1002C00041F853465A46C01A914110D31146184678
:1002D000224600F028F82D1A67EB01084F46224607
:1002E0000120002100F01FF817EB00094E41201EED
:1002F000A4F10104DFDC484631462A464346BDE806
:10030000F09F40EA01039B0703D009E008C9121FD0
:1003100008C0042AFAD203E011F8013B00F8013BBF
:10032000521EF9D27047202A04DB203A00FA02F16B
:10033000002070479140C2F1200320FA03F31943D3
:1003400090407047202A04DB203A21FA02F0002175
:10035000704721FA02F3D040C2F1200291400843D5
:1003600019467047064C074D06E0E06840F001036F
:1003700094E8070098471034AC42F6D3FFF71AFF11
:10038000744E0008944E0008012003F0B8FEFBE70D
:10039000012003F0B4FEFBE7FEE7012003F0AFFE0F
:1003A000FBE7012003F0ABFEFBE70000014800F093
:1003B000A6BF000034010020014800F0A0BF0000EB
:1003C000FC050020014800F09ABF0000B4050020A1
:1003D000014800F094BF0000DC040020014800F058
:1003E0008EBF000094040020014800F088BF000088
:1003F00024050020014800F082BF00006C050020A9
:10040000012003F07CFEFBE77047012003F077FE3C
:10041000FBE7012003F073FEFBE700002DE9F04746
:1004200004460D46002794F85820DFF80894216907
:100430003846012A0CD00126FF4A84F858604FF054
:10044000000841B1A969012905D0A36EEBB129E0EB
:100450000220BDE8F0876868082838D1A96A4FF4FF
:10046000F85041B12B6801F03C0100EA9340084389
:10047000E96A084302E0296800EA91402168CB6CF0
:1004800013400343CB64606621E0C4E91981A96A83
:10049000A86931B101F03C01401E0843E96A0843F4
:1004A00000E0401E29682B79C1F3846103F01F032B
:1004B0009940A36E01435B1EA366606E40EA010093
:1004C000606604D12368D96C11400143D964206867
:1004D00002F06EFC48B9286A68B12068C168AA8C2D
:1004E00021F4401141EA4251C1602068816811F055
:1004F0000C0F0BD0D8E0A88CA98B400540EA015125
:100500002068C26822F440121143EDE7A96A29B1BC
:10051000E96A19B1296A012942D002E0296A012950
:1005200003D0C16821F0007102E0C16841F00071A0
:10053000C160286B012839D02068016921F00201CF
:100540000161AA6829682068B2F1004F20D002F04A
:100550005EFC2068416921F00041416120686969C1
:10056000C268C2F3C102520091402A69042A28D00D
:1005700000EB82002B68DFF8C4C2026E03F0F84380
:1005800002EA0C020B431A4342F0004101668BE081
:10059000002202F03CFC2068416941F00041DCE7A8
:1005A000E06D40F02000E0650127C2E7D5E90D10BD
:1005B00001432068026922F4FF7242F002021143F3
:1005C000BEE7002102F0EEFB400320684FF000017F
:1005D00073D002F0E7FB90FAA0F0B0FA80F128683F
:1005E00042036FD090FAA0F0B0FA80F0814204D1BB
:1005F00000221146206802F035FC0121206802F03B
:10060000D1FB400320684FF001015ED002F0CAFB2D
:1006100090FAA0F0B0FA80F1286842035AD090FA1C
:10062000A0F0B0FA80F0814204D1002201212068BC
:1006300002F018FC0221206802F0B4FB400320689D
:100640004FF0020149D002F0ADFB90FAA0F0B0FAF1
:1006500080F12868420345D090FAA0F0B0FA80F00B
:10066000814204D100220221206802F0FBFB032119
:10067000206802F097FB400320684FF0030134D05C
:1006800002F090FB90FAA0F0B0FA80F128684203E3
:1006900030D090FAA0F0B0FA80F0814204D100226C
:1006A0000321206802F0DEFB2068816801F003016D
:1006B000012925D121E000E004E002F073FBC0F342
:1006C00084618CE7C0F3846090E702F06BFBC0F3B9
:1006D0008461A1E7C0F38460A5E702F063FBC0F387
:1006E0008461B6E7C0F38460BAE702F05BFBC0F355
:1006F0008461CBE7C0F38460CFE70168C9077FD18D
:100700002A7B296850F8B03FC1F3120C23EA0C038E
:1007100002F0200C4FF0FF3202FA0CF20A40C2F352
:1007200012010B430360E968494569D12868410318
:1007300016D090FAA0F1B1FA81F1491C09294FEACB
:1007400040312CD800290ED090FAA0F1B1FA81F1F5
:1007500001F1010106FA01F608D1C0F3846109E054
:10076000C0F38461E9E7C0F38461F1E790FAA0F196
:10077000B1FA81F101F1010146EA816102D1C0F3D0
:10078000846003E090FAA0F0B0FA80F000EB400043
:100790004FF4401202EB005041EA00012AE0002928
:1007A0000CD090FAA0F1B1FA81F100BF01F1010182
:1007B00006FA01F605D1C0F3846106E0C0F3846156
:1007C000F4E790FAA0F1B1FA81F101F1010146EAF2
:1007D000816102D1C0F3846003E090FAA0F0B0FA26
:1007E00080F0174A00EB400002EB005041EA0001A4
:1007F00041F00071AA68206800E001E002F007FB08
:10080000DFF840C02968104D104B1148614504D1F4
:10081000826802F0E07212021ED5A94204D18268F9
:1008200002F0E072D20117D5994251D1826802F0EC
:10083000E0720FE000007F400020088200F0FF031C
:10084000000050FE000052C7000084CB0100008071
:100850000003045052023BD41F4A204E61451BD175
:100860002168914201D0B14232D18168826801F0A1
:10087000E07141F4000122F0E0720A4382601848FE
:1008800018490068B0FBF1F0C0EB0010C00000E0B8
:10089000401E0028FCD11BE0A9420AD121689142E8
:1008A00001D0B14214D1816801F0E07141F0807152
:1008B00009E099420CD12168914209D1816801F087
:1008C000E07141F48001826822F0E0720A438260A4
:1008D00084F858803846BCE50000045000020450FB
:1008E0005C00002040420F00F0B5044690F858002C
:1008F00000269BB00D4601280DD0012084F8580039
:10090000324920680027884208D13149009102F01D
:1009100057FA58B10EE002201BB0F0BDE06D40F078
:100920002000E06584F858700120F5E7009802F097
:1009300047FA48B1E06D40F02000E0655FF0010645
:1009400084F858703046E7E722482A6840F61F715D
:10095000002A826822F460421FD0636B42EA43326D
:100960006B681A4382602268936803F00303012BCB
:1009700002D11268D207E3D1009A926802F0030212
:10098000012A03D1009A1268D207D9D1AB682A682C
:100990001A4383688B431A4315E082602268936888
:1009A00003F00303012B02D11268D207C8D1009AC9
:1009B000926802F00302012A03D1009A1268D2075A
:1009C000BED182688A438260BAE70000000004500A
:1009D00000010450000304502DE9F84300270446A9
:1009E000009790F85800DFF8F4930D46B8460128B8
:1009F00011D0012684F85860206802F0DDF960B15A
:100A0000E06D40F02000E0655FF0010784F8588059
:100A10003846BDE8F8830220FBE76868052812D84D
:100A2000022807D0032807D0042807D0052807D0BC
:100A3000062007E00C2005E0122003E0182001E06A
:100A40004FF480706860A9884FF4407C01F44073D3
:100A50009CFAACFCBCFA8CFC206823FA0CF300EB8B
:100A600083002A6801F01F014FF01F0C0CFA01FCF3
:100A7000036BC2F3846223EA0C038A4013430363CB
:100A80002068816811F00C0F24D1AA682968B2F19E
:100A9000004F20D002F098F92068416921F0004110
:100AA000416120686969C268C2F3C1025200914085
:100AB0002A69042A17D000EB82002B68DFF820C3D4
:100AC000026E03F0F84302EA0C020B431A4342F0B1
:100AD000004101667AE0002202F076F9206841695F
:100AE00041F00041DCE7002102F056F940032068A4
:100AF0004FF0000173D002F04FF990FAA0F0B0FA75
:100B000080F1286842036FD090FAA0F0B0FA80F02C
:100B1000814204D100221146206802F09BF9012194
:100B2000206802F039F9400320684FF001015ED0DF
:100B300002F032F990FAA0F0B0FA80F1286842038E
:100B40005AD090FAA0F0B0FA80F0814204D100228D
:100B50000121206802F07EF90221206802F01CF9D0
:100B6000400320684FF0020149D002F015F990FAD5
:100B7000A0F0B0FA80F12868420345D090FAA0F0C6
:100B8000B0FA80F0814204D100220221206802F0F4
:100B900061F90321206802F0FFF8400320684FF05C
:100BA000030134D002F0F8F890FAA0F0B0FA80F126
:100BB0002868420330D090FAA0F0B0FA80F0814269
:100BC00004D100220321206802F044F920688168E2
:100BD00001F00301012925D121E000E004E002F049
:100BE000DBF8C0F384618CE7C0F3846090E702F027
:100BF000D3F8C0F38461A1E7C0F38460A5E702F0F5
:100C0000CBF8C0F38461B6E7C0F38460BAE702F0C2
:100C1000C3F8C0F38461CBE7C0F38460CFE7016819
:100C2000C9077FD12A7B296850F8B03FC1F3120C65
:100C300023EA0C0302F0200C4FF0FF3202FA0CF210
:100C40000A40C2F312010B430360E968494569D1C8
:100C50002868410316D090FAA0F1B1FA81F1491C3D
:100C600009294FEA40312CD800290ED090FAA0F182
:100C7000B1FA81F101F1010106FA01F608D1C0F3E0
:100C8000846109E0C0F38461E9E7C0F38461F1E7BE
:100C900090FAA0F1B1FA81F101F1010146EA816116
:100CA00002D1C0F3846003E090FAA0F0B0FA80F0C3
:100CB00000EB40004FF4401202EB005041EA00010B
:100CC0002AE000290CD090FAA0F1B1FA81F100BF1E
:100CD00001F1010106FA01F605D1C0F3846106E0D5
:100CE000C0F38461F4E790FAA0F1B1FA81F101F167
:100CF000010146EA816102D1C0F3846003E090FA09
:100D0000A0F0B0FA80F0374A00EB400002EB005050
:100D100041EA000141F00071AA68206800E001E0AA
:100D200002F052F8DFF8C0C02968304B304D31482E
:100D3000614504D1826802F0E07212020FD5994237
:100D400004D1826802F0E072D20108D5A9427FF492
:100D50005DAE826802F0E07252023FF557AE264A5D
:100D6000264E61451CD12168914201D0B142EED19D
:100D70008168826801F0E07141F4000122F0E072C4
:100D80000A4382601E481F490068B0FBF1F0C0EBC7
:100D90000010C00000E0401E00900028FBD135E6A6
:100DA00099420AD12168914201D0B142F7D18168BC
:100DB00001F0E07141F0807109E0A942EFD12168B2
:100DC0009142ECD1816801F0E07141F480018268C8
:100DD00022F0E0720A43826018E6000000007F40C3
:100DE00000F0FF03000050FE000052C7000084CB5B
:100DF0000100008000030450000004500002045071
:100E00005C00002080841E00F8B54FF0000504004F
:100E10002E46009502D0E06D10B107E00120F8BD2C
:100E2000204600F0FFF8266684F858602068816844
:100E3000C1F3407119B18168714A11408160206825
:100E40008168C1F3007191B981686E4A114041F027
:100E5000805181606C486D490068B0FBF1F000EB97
:100E60008000400000E0401E00900028FBD1206878
:100E70008168C1F3007141B9E16D41F01001E16594
:100E8000216E41F0010121660125E16DC90602D400
:100E900001F092FF30B1E06D40F01000E0650125F7
:100EA0002846F8BDE06D20F4807040F00200E06557
:100EB0002168886800F00300012802D10868C00793
:100EC0003FD15348814212D1D0F8081101F00301FB
:100ED000012903D1D0F80011C90732D1D0F8081286
:100EE00001F00301012925D1D0F8000220E0494A90
:100EF0009142816801F003010DD1012902D10168FD
:100F0000C9071ED1D0F8081201F00301012907D149
:100F1000D0F8001202E0012902D10168C90710D1FE
:100F2000D0F8081101F00301012903D1D0F8000124
:100F3000C00706D1384960688A6822F47C120243EF
:100F40008A60E168A06BE2690843A16841EA423126
:100F50000843616A40EA0140012904D1218D2F4AEA
:100F600002EB41410843E16A29B101F47071226B3F
:100F7000014342EA01002168CA68294B1A40024332
:100F8000CA602068816811F00C0F14D1A169626BEE
:100F9000890341EA4201226D1143C26844F206030B
:100FA0009A430A43C260E06B01280CD020680169B3
:100FB00021F001010161206901282068016B21F005
:100FC0000F0111D013E0D4E910010843D4E9121243
:100FD0001143084321680A6940F2FC739A431043A5
:100FE00040F001000861E6E7226A521E11430163E6
:100FF000E06D20F0020040F00100E06550E70000E5
:10100000C0FFFF5FC0FFFF7F5C00002080841E00E8
:101010000000045000010450000304500000FEFFD3
:1010200007C0F0FF70B506460068194986B08842CF
:101030002CD11848C16C41F40051C164C06C00252A
:1010400000F400500590E02000900B20CDE9010550
:1010500069464FF0904000F01DFA104C0E48C4E96C
:1010600000058020A560C4E9035040006061800055
:10107000A0612020C4E90705204600F09DF918B1C1
:10108000B42107A003F001F87465A66206B070BD34
:10109000000004500010024008000240340100200B
:1010A0002E2E2F5372632F6164632E6300000000A5
:1010B000704700002DE9F0470446407900271546A7
:1010C0000E46012809D04FF0010984F8059002204E
:1010D00020713068042803D044E00220BDE8F08786
:1010E0004FF003080DBB00F0B7FA074605E000BF5C
:1010F00000F0B2FAC01B01280FD82068406B000432
:10110000F6D4012000F0B8F92168B069086416E04F
:1011100000F0A2FAC01B012807D9206940F008009E
:10112000206184F804800320D8E72068406B002801
:10113000EEDB012000F0A0F92168B0694864206866
:10114000816C40F2FF32AA409143F269AA401143F8
:1011500081642068C16CFF22AA409143326AAA4090
:101160001143C1643069012808D12268916B1F20A6
:10117000A84081437069A840084390632268D06BFF
:101180000721A9408843B36831681943F3681943BC
:10119000A9400143D163206801684FF48042AA400E
:1011A000914301602268116840F6FC70A8408143B9
:1011B0007068A8400843106020680168C022AA40F7
:1011C0009143016084F804900020607186E77047C5
:1011D00070B50446006801684FF00405890411D514
:1011E000416B89040ED52571216941F0010121610E
:1011F000E90241632068016821F4805101602046C2
:10120000FFF7E5FF20680168890014D5416B89006C
:1012100011D52571216941F0020121614FF0005182
:1012200041632068016821F0805101602046BDE8DB
:101230007040FFF73DBF70BD70B5040003D020794A
:10124000002510B105E0012070BD6571204600F059
:1012500007F802202071256101202071002070BD57
:1012600000B50068104987B088421BD10F48816DD6
:1012700041F000518165806D694600F00050059095
:101280001020009003200190002002904FF0904029
:1012900000F000F900220521362000F07DFA36200A
:1012A00000F06EFA07B000BD00740040001002406C
:1012B00010B590F825100024022903D00421C16341
:1012C00001241AE001680A6822F00E020A6001682F
:1012D0000A6822F001020A6090F84410036C01F0E1
:1012E0001C02012101FA02F25A6080F82510002147
:1012F00080F82410816B01B18847204610BDF0B4FE
:10130000016C0C6801680D6890F8442002F01C061E
:10131000042202FA06F3234211D06B070FD50B68A3
:101320009B0603D40B6823F004030B6090F8441071
:1013300001F01C018A40016C4A60016B1DE0022330
:1013400003FA06F727424FF0000C4FF0010218D0C5
:10135000AF0716D50C68A40605D40C6824F00A045F
:101360000C6080F8252090F8441001F01C018B409F
:10137000016C4B6080F824C0C16A00291AD0F0BC0F
:1013800008470823B340234214D02B0712D50B681B
:1013900023F00E030B6090F84410036C01F01C0165
:1013A00002FA01F15960C26380F8252080F824C058
:1013B000416BE2E7F0BC704770B568B12B4C036835
:1013C00014212B4AA34209D22A4C1C44B4FBF1F14C
:1013D0008900C0E910210BE0012070BD234C64425C
:1013E0001C44B4FBF1F189004164204908390164CF
:1013F000022180F825101C6847F6F0718C43D0E973
:1014000002152943D0E90456354329438569294308
:10141000C5692943056A2943214319608168B1F5EB
:10142000804F19D0036C0F21934202D152F8A83F8C
:1014300002E00E4AA032136890F8444004F01C0405
:10144000A1408B43136090F84430416803F01C03C3
:1014500099401368194311600021C163012280F88B
:10146000252080F82410084670BD000008040240C2
:1014700000000240F8FFFDBF70B5044600F0ECF834
:101480000546601C00D0641C00F0E6F8401BA0423A
:10149000FAD370BD2DE9F84FDFF888B100234FF083
:1014A000010C4FF0030A4FF00F090BF1040EB1E0ED
:1014B0000CFA03F632406FD04C68022C01D0122C8B
:1014C00011D1DC0800EB84073C6A5D07ED0E09FAD8
:1014D00005F824EA0804D1F8108008FA05F848EA6B
:1014E0000408C7F8208007685D0091F804800AFAB4
:1014F00005F408F00308A74308FA05F848EA0708C6
:10150000C0F800804F68012F05D0022F03D0112FA3
:1015100001D0122F10D1D0F80880CF6828EA040833
:10152000AF4047EA080787604768B7430E79C6F3BC
:1015300000169E403E434660C668A6438C68AC4099
:101540003443C4604C68E40063D5374C256E45F0E5
:1015500001052566246E23F0030504F001040094C0
:10156000324C2F19BD689C07260F09FA06F4A543D3
:10157000B0F1904F04D02E4CA04203D1012421E0C1
:1015800000241FE02B4CA04201D102241AE02A4C77
:10159000A04202D1032415E03BE0284CA04201D137
:1015A00004240FE0264CA04201D105240AE0254C7A
:1015B000A04201D1062405E0234CA04201D107241A
:1015C00000E00824B4402C43BC60DBF800405D46DA
:1015D0004E689443F60300D514432C60DEF80040B7
:1015E00075464E689443B60300D514432C600D4DE8
:1015F00008352C684E689443F60200D514432C60DD
:10160000084D0C352C684E689443B60200D514433F
:101610002C605B1C0A6832FA03F47FF449AFBDE822
:10162000F88F00000004014000100240000001405B
:101630000004004800080048000C00480010004862
:101640000014004800180048001C00480AB18161DD
:1016500070478162704700000148006870470000D1
:101660005800002002480168491C016070470000D2
:101670005800002010B5032000F0AEF8002000F064
:1016800005F800F03DF8002010BD000000B501464F
:1016900087B00022192000F07FF8192000F070F8C0
:1016A0001348016E41F400610166006E05A900F463
:1016B00000600690684600F047FB00F07BFB0D4998
:1016C0000D4AB0FBF1F10D48491E0260416040F245
:1016D000E7320021C0E90321816000F085FF10B1ED
:1016E000012007B000BD054800F0D6FFF9E7000073
:1016F0000010024040420F00002C01404406002030
:101700001E4808B5016E41F001010166016E01F04D
:1017100001010091816D41F080518165806D00F083
:1017200080500090032000F057F8002211466FF01F
:101730000B0000F031F8002211466FF00A0000F0B3
:101740002BF8002211466FF0090000F025F8002266
:101750001146501F00F020F800221146101F00F023
:101760001BF800220F21901E00F016F800220F2116
:10177000BDE80840501E00F00FB800000010024005
:1017800000F01F02012191404009800000F1E0209B
:10179000C0F8001170470000F0B40E4B1B680C46F7
:1017A000C3F30223C3F10705042D00D90425191D35
:1017B000072901D2002300E0DB1E012606FA05F10D
:1017C000491E214099409E40761E16403143F0BC90
:1017D00001F044BF0CED00E0064900F00702086884
:1017E0004FF6FF03184040EA0220034A1043086006
:1017F000704700000CED00E00000FA051549B0F557
:10180000007F0868C0F3412009D0022805D008688D
:1018100020F4C06040F48060086000207047012818
:10182000FBD0086820F4C06040F4007008600A48EB
:101830000A4A0068B0FBF2F03222504300E0401E3A
:1018400010B14A695205FAD448694005E5D503202C
:1018500070470000007000405C00002040420F0014
:101860000248006800F4C06070470000007000404B
:101870002DE9F84F044600270088EC4D3E4601054F
:1018800004F1200B1DD5A06E78B1B0F5800F11D0FA
:10189000B0F5000F04D0B0F5400F22D001270FE0C3
:1018A000E86840F48030E8601BE00021201D01F072
:1018B000F1FE03E00021584601F082FF070010D03E
:1018C0003E462088C00426D5E06EC0B1B0F1807FCE
:1018D0001AD0B0F1007F0DD0B0F1407F19D00127B0
:1018E00018E0D5F88800A16E20F440000843C5F840
:1018F0008800E6E7E86840F48030E86009E000210D
:10190000201D01F0C7FE03E00021584601F058FFFA
:101910000746F7B13E46206880033AD5A86D4FF0E0
:101920000008C00009D4A86D40F08050A865A86DDB
:101930004FF0010800F080500090DFF8F4A2DAF8D0
:10194000001041F48071CAF80010FFF785FE81464F
:1019500010E0D5F88800E16E20F040700843C5F82B
:101960008800D8E7FFF778FEA0EB0900022801D92C
:10197000032705E0DAF80000C005F3D5002F7CD07E
:101980004FEA0706B8F1000F03D0A86D20F0805091
:10199000A8652078C00707D0D5F88800A16B20F093
:1019A00003000843C5F888002078800707D5D5F8DC
:1019B0008800E16B20F00C000843C5F8880020780F
:1019C000400707D5D5F88800216C20F03000084387
:1019D000C5F888002078000707D5D5F88800616C25
:1019E00020F0C0000843C5F888002078C00607D55D
:1019F000D5F88800A16C20F440700843C5F8880031
:101A00002078800607D5D5F88800E16C20F4406086
:101A10000843C5F888002088800507D5D5F88800D8
:101A2000216E20F440200843C5F888002088400536
:101A300007D5D5F88800616E20F440100843C5F83A
:101A400088002078400607D5D5F88800216D20F45D
:101A500040500843C5F888002078000607D5D5F81F
:101A60008800616D20F440400843C5F88800208854
:101A7000C00509D5D5F8880000E027E0A16D20F465
:101A800040300843C5F888002068C00207D5D5F863
:101A90009C00E16D20F003000843C5F89C002088FD
:101AA0004FF0006780044FF0806850D5D5F888006B
:101AB000216F20F040600843C5F88800206FB842CD
:101AC0003DD1E86840F48010E86040E0D5F890002F
:101AD00010F4407015D0D4F88810814211D0D5F898
:101AE0009000D5F8901020F4407041F48031C5F892
:101AF0009010D5F8901021F48031C5F89010C5F8F9
:101B00009000C00711D0FFF7A7FD074641F28839C2
:101B100007E000BFFFF7A0FDC11B494501D903261F
:101B200030E7D5F890008007F4D5D5F89000D4F8C8
:101B3000881020F440700843C5F8900022E7404523
:101B400005D10121201D01F0A5FD00B10646206848
:101B5000000317D5D5F88800616F20F04060084376
:101B6000C5F88800606FB84204D1E86840F480107E
:101B7000E86007E0404505D10121201D01F08AFD04
:101B800000B106462068400317D5D5F88800A16F3C
:101B900020F040600843C5F88800A06FB84204D127
:101BA000E86840F48010E86007E0404505D1012175
:101BB000201D01F06FFD00B10646208840041AD5B3
:101BC000D5F88800E16F20F040500843C5F8880040
:101BD000E06FB0F1805F03D0B0F1005F05D00AE0A4
:101BE0000221201D01F056FD03E00221584601F0BC
:101BF000E7FD00B106462088000408D5D5F8880026
:101C0000D4F8801020F080400843C5F88800206890
:101C1000C00307D555F8880FD4F8841020F0004091
:101C2000084328603046BDE8F88F000000100240ED
:101C3000007000402DE9F0470F46050058D03E4E99
:101C4000306800F00700B84209D2306820F0070081
:101C500038433060306800F00700B84248D1287837
:101C6000364CC0072CD06868032811D0022812D047
:101C7000216898B1490500293ADAA16821F00301E9
:101C80000143A160FFF7E8FC804641F2883910E08B
:101C900021688901EFE721688903ECE78907EAE712
:101CA000FFF7DAFCA0EB0801494502D90320BDE8A3
:101CB000F087A068696800F00C00B0EB810FEFD1ED
:101CC0002878800705D5A068A96820F0F0000843AF
:101CD000A060306800F00700B8420BD9306820F0EF
:101CE000070038433060306800F00700B84201D088
:101CF0000120DCE72878400705D5A068E96820F4D2
:101D0000E0600843A0602878000706D5A06829692C
:101D100020F4605040EAC100A06000F05BF8A168C8
:101D2000074AC1F30311515CC8400649086000200E
:101D3000FFF7ACFC0020BAE7002002400010024090
:101D4000244D00085C0000200F2202600C4A9368BA
:101D500003F003034360936803F0F0038360936828
:101D600003F4E063C36092684FF4E06303EAD202D5
:101D700002610448006800F0070008607047000036
:101D80000010024000200240014800687047000037
:101D90005C0000200448054900688968044AC1F3D2
:101DA0000221515CC84070475C00002000100240D6
:101DB000644D00080448054900688968044AC1F375
:101DC000C221515CC84070475C00002000100240F6
:101DD000644D000830B52D49002318468A682C4C04
:101DE00012F00C0F4FF4610514D08A68C2F381021F
:101DF000032A04D1CA6802F00302012A0AD08A68C1
:101E0000C2F38102012A19D08A68C2F38102022A30
:101E100016D016E00A68120704D4D1F89420C2F351
:101E2000032202E00A68C2F303121A4B53F822306D
:101E30008A6812F00C0F04D1184602E0204600E038
:101E400028468A68C2F38102032A1DD1C868CA687D
:101E500000F00300C2F30212521C022804D003282F
:101E600005D0B3FBF2F004E0B4FBF2F001E0B5FB07
:101E7000F2F0CA68C968C2F306225043C1F3416157
:101E8000491C4900B0FBF1F030BD000000100240D9
:101E90000024F400344D000870B5104C86B016468E
:101EA000E06C0D4640F00100E064E06C694600F033
:101EB00001000590A01500900220019003900020E1
:101EC000029004904FF09040FFF7E4FAA068354389
:101ED00020F0FE402843A06006B070BD0010024014
:101EE0002DE9F84304007DD02078FF4DC0065DD574
:101EF000A86810F00C0F0AD0A0690028286873D0D9
:101F000040F001002860FFF7A7FB064655E028686F
:101F1000800702D5A0690028E5D0216A286800075B
:101F200003D5286800F0F00004E0D5F89400F02212
:101F300002EA1010814216D9084601F0C5FC0028BB
:101F400050D1286840F0080028602868216A20F0F5
:101F5000F000084328606868E16920F47F4040EAA7
:101F60000120686015E0286840F0080028602868B3
:101F7000216A20F0F000084328606868E16920F4D5
:101F80007F4040EA01206860206A01F09DFC002843
:101F9000D6D1FFF71FFFA968D44AC1F30311515CE2
:101FA000C840D34908600020FFF770FB2CE000BF59
:101FB000FFF752FB801B02287ED828688007F7D5E0
:101FC000286840F0080028602868216A20F0F000A6
:101FD000084328606868E16920F47F4040EA0120F6
:101FE000686011E0B2E0FFE720F001002860FFF731
:101FF00033FB064605E000BFFFF72EFB801B0228DF
:10200000DAD828688007F7D42078C00748D0A868B5
:10201000C0F3810002281DD0A868C0F38100032806
:1020200003D1E868C043800714D06068B0F5803FF2
:1020300017D0B0F5A02F286817D020F48030286082
:10204000286820F4802028606068E0B1FFF704FB76
:10205000064614E02868800322D56068002875D001
:102060001EE0286840F48030EDE740F480202860CE
:10207000F7E700BFFFF7F0FA801B64289CD82868B8
:102080008003F7D50CE0FFF7E7FA064605E000BF4E
:10209000FFF7E2FA801B64288ED828688003F7D403
:1020A0002078800742D5A868C0F38100012816D0A7
:1020B000A868C0F3810000E0CEE0032804D1E868FE
:1020C00000F0030002280AD0E068002828681DD02C
:1020D00040F480702860FFF7BFFA06460BE02868DE
:1020E00040050BD5E0680028B9D007E0FFF7B4FA47
:1020F000801B022884D828684005F7D56868217CB1
:1021000020F0FE4040EA016068600FE020F480703B
:102110002860FFF7A1FA064605E000BFFFF79CFA2A
:10212000801B0228AAD828684005F7D42078000729
:1021300029D560690028D5F8940013D040F001003B
:10214000C5F89400FFF788FA064606E023E100BFD1
:10215000FFF782FA801B02287ED8D5F8940080070A
:10216000F6D510E020F00100C5F89400FFF774FAEE
:10217000064604E0FFF770FA801B02286CD8D5F8F9
:1021800094008007F6D42078400761D5A86D00261A
:10219000C00008D4A86D40F08050A865A86D012645
:1021A00000F08050009053480168C90511D40168BF
:1021B000804641F480710160FFF74EFA074604E063
:1021C000FFF74AFAC01B022846D8D8F80000C0051D
:1021D000F6D5A068012815D00528D5F8900016D0AE
:1021E00020F00100C5F89000D5F8900020F0040020
:1021F000C5F89000A06841F28838B8B1FFF72CFA12
:1022000007460EE0D5F8900040F00100F0E740F0FE
:102210000400C5F89000F5E7FFF71EFAC11B414521
:102220001AD8D5F890008007F6D50CE0FFF714FA1D
:10223000074604E0FFF710FAC11B41450CD8D5F85A
:1022400090008007F6D41EB1A86D20F08050A865DC
:102250002078800629D500E084E0606A0028D5F85F
:10226000980011D040F00100C5F89800FFF7F4F98C
:10227000064604E0FFF7F0F9801B022872D8D5F873
:1022800098008007F6D510E020F00100C5F898000E
:10229000FFF7E2F9064604E0FFF7DEF9801B0228AB
:1022A00071D8D5F898008007F6D4A06AF0B3A96871
:1022B000C1F3810103296FD00228286820F08070C3
:1022C00028601BD02868000106D42868800003D449
:1022D000E86820F00300E860E86807490840E86023
:1022E000FFF7BAF9044651E000100240244D0008FF
:1022F0005C00002000700040FFFFEEFEFFF7ACF92D
:10230000064604E0FFF7A8F9801B02283BD828689E
:102310008001F7D4206B54F82C1F000110380843BB
:10232000218A1E4A490802EB415100E031E0A268CF
:1023300041EA02210843217D4FF07E42490802EB29
:1023400041610843217B40EAC160E860286840F0B1
:1023500080702860E86840F08070E860FFF77CF9E2
:10236000044606E00FE000BFFFF776F9001B0228E5
:1023700009D828688001F7D50BE000BFFFF76CF99A
:10238000001B022802D90320BDE8F88328688001D9
:10239000F4D40020F8E7FFE70120F5E70000E0FFB4
:1023A0002DE9F0411D4616460F46040003D094F86F
:1023B000710018B108E00120BDE8F081002084F828
:1023C0007000204600F06CFB242084F87100206827
:1023D000016821F001010160204601F0BDFC0128E7
:1023E000EAD0606A10B1204601F009FC20688168DB
:1023F00041F4804181602068816821F400413943C3
:102400008160700540EA054120680268064B1A4069
:102410000A4302602068016841F001010160204622
:10242000BDE8F04101F04FBCFFFF00FC2DE9F04199
:10243000040005D00025A56294F85D0018B107E0FE
:102440000120BDE8F08184F85C50204600F044F89B
:10245000022384F85D302068016821F040010160AA
:10246000E0684FF4E066B04201D9002101E04FF48A
:102470008051B0F5706F02D0B04200D0A562276BDA
:10248000012227B9B04201D9236300E02263D4E9D5
:1024900001031843D4E9043633431843238B03F470
:1024A00000731843E3691843236A1843A36A184367
:1024B00023681860636B606AA66918430427E368A1
:1024C00007EA1646334318430843216848602566E7
:1024D00084F85D200020B4E7F0B50068144987B0A7
:1024E000884223D11348816D41F400418165806D9C
:1024F000022400F4004005904FF40040002503261C
:1025000006278DE8F10069464FF09040FEF7C2FFC4
:1025100060028DE8F10069460748FEF7BBFF202006
:102520008DE8F10069460548FEF7B4FF07B0F0BD3D
:10253000003C004000100240000800480004004831
:102540004FF0E0210428086903D020F0040008615E
:10255000704740F00400FAE710B5401EB0F1807FEC
:1025600001D3012010BD4FF0E02460610F216017FE
:1025700001F074F80020A06107202061002010BD48
:10258000704770477047000070B590F83C20012AF2
:1025900024D0012480F83C40022280F83D200268CB
:1025A000536895680E4EB24202D00E4EB24203D12D
:1025B00023F470064B68334323F070060B68896878
:1025C000334325F08005294353600268916080F809
:1025D0003D40002180F83C10084670BD022070BDCF
:1025E000002C01400034014010B5040003D094F8E1
:1025F0003D0010B107E0012010BD002084F83C0030
:10260000204600F00DF8022084F83D00211D2068CE
:1026100001F05CFA012084F83D00002010BD0000AC
:1026200008B501681948B1F1804F11D0184A91429C
:1026300017D1816D41F010018165806D002200F09D
:102640001000009005213620FFF7A6F8362019E08B
:10265000816D41F001018165806D00F00100009005
:1026600008BD0C4A9142FBD1816D41F0200181658A
:10267000806D002200F02000009005213720FFF738
:102680008BF83720BDE80840FFF77AB80010024009
:1026900000100040001400400168CA6842F00102C6
:1026A000CA600068826807490A40062A08D0826822
:1026B0000A40B2F5803F03D0016841F0010101609A
:1026C000002070470700010070B5044690F83C00F8
:1026D000012817D0012584F83C50022084F83D00E1
:1026E00020688268324E324022F47F42826008685D
:1026F000502839D00DDC202855D005DC98B310289F
:1027000043D150E0022070BD30284CD040283CD14D
:1027100041E0602830D070280CD0B0F5805F03D045
:10272000B0F5005F31D112E020688168204A703234
:10273000114016E0CB68D1E90121206801F026FAAA
:1027400021688868304040F0770088601DE0CB68E1
:10275000D1E90121206801F019FA2068816841F46B
:102760008041816011E01EE0CA684968206801F07C
:102770001FFA5021206806E0CA684968206801F005
:1027800028FA6021206801F00BFA84F83D500020FF
:1027900084F83C0070BDCA684968206801F008FAF6
:1027A00040212068EFE7226801461046EBE7000071
:1027B00088FFFEFF704770B50446006801694FF05E
:1027C0000005C943890715D4C168C943890711D4D5
:1027D000E91E01610120207720688069800720467A
:1027E00002D0FFF7E7FF04E000F0A7F8204600F072
:1027F000A5F8257720680169C943490717D4C1683E
:10280000C943490713D46FF0040101610220207706
:102810002068806910F4407F204602D0FFF7CAFF8D
:1028200004E000F08AF8204600F088F82577206858
:102830000169C943090716D4C168C943090712D4FD
:102840006FF008010161042020772068C0698007CB
:10285000204602D0FFF7AEFF04E000F06EF82046FD
:1028600000F06CF8257720680169C943C90617D4C0
:10287000C168C943C90613D46FF010010161082073
:1028800020772068C06910F4407F204602D0FFF70F
:1028900091FF04E000F051F8204600F04FF8257752
:1028A00020680169C943C90708D1C168C943C9077C
:1028B00004D1891E0161204600F042F820680169B8
:1028C000C943090609D4C168C943090605D46FF094
:1028D000800101612046FFF754FE20680169C94369
:1028E000C90509D4C168C943090605D46FF48071CC
:1028F00001612046FFF744FE20680169C94349068B
:1029000009D4C168C943490605D46FF0400101618B
:10291000204600F01FF820680169C94389060BD4DE
:10292000C168C943890607D46FF0200101612046C0
:10293000BDE87040FFF726BE70BD704770470000CD
:1029400000680349884201D1FEF78CBE7047000041
:10295000002C014070477047704700002DE9F0419E
:1029600002680446D0691168936810F00F0F4FF0A9
:1029700000055BD003F0010601F49077374369D07E
:10298000C70707D0CF0505D501271762626F42F050
:1029900001026267820708D5DA0706D0276802229B
:1029A0003A62626F42F004026267420708D5DA07B2
:1029B00006D0236804221A62626F42F00202626744
:1029C00002070AD501F02002324306D0236808220C
:1029D0001A62626F42F008026267626F002A32D0A8
:1029E000800605D5880603D5216E09B120468847A3
:1029F000606F000703D420688068400625D5204614
:102A000001F099F920688168490619D5816821F09B
:102A100040018160E06E98B120498163E06EFEF76D
:102A200047FC00280FD0E06E816B06E0860611D5CA
:102A30008E060FD5216E1EE02046BDE8F041084706
:102A40002046FFF789FFBDE8F0812046FFF784FFAD
:102A50006567F8E7C60209D55B0207D54FF4801019
:102A600010622046BDE8F041FFF775BF030605D5AB
:102A70000B0603D5616E0029DED1E4E74006E2D5FE
:102A80004806E0D51168204621F040011160202160
:102A900084F87110656600F075F9D4E7233D0008ED
:102AA0002DE9F04F04460368A748A849DFF8A0E2E3
:102AB00010270025022687B04FF00308834228D153
:102AC000886D40F480108865886D082400F48010BB
:102AD00005908814CDE900060295CDE90384694686
:102AE0007046FEF7D7FC0420CDE900060295CDE93B
:102AF000038469469748FEF7CDFC0097CDE903842F
:102B0000CDE9016569469448FEF7C4FC07B0BDE80D
:102B1000F08FDFF848C207204FF090424FF0800955
:102B2000634554D10B6E43F480430B66096E0295E6
:102B300001F4804105914FF4B051CDE90016CDE983
:102B4000038069461046FEF7A5FCDFF81882844929
:102B50004046C8F80010C0E90165C0E90359C8F84B
:102B60001450C8F81850C8F81C50C8F82050FEF788
:102B700023FC18B1E9217CA001F087FAC4F86C802D
:102B8000C8F82840DFF8DC81754908F1480840465C
:102B90001439C0E90275C0E90495C8F81850C8F89E
:102BA0001C50C8E90016C8F82050FEF705FC18B103
:102BB000FA216DA001F069FAC4F8688000220521AD
:102BC0002520C8F82840FEF7E7FD25205BE0DFF868
:102BD000A8C163455AD18B6D43F400338B65896D71
:102BE000029501F4003105910E21CDE90016CDE9E1
:102BF0000380B346AA4669461046FEF74BFCDFF851
:102C00006481574908F1900814314046C8F8001013
:102C1000C0E90165C0E90359C8F81450C8F8185054
:102C2000C8F81C504E46C8F82050FEF7C5FB20B12E
:102C300040F227114CA001F028FA4A4DC4F86C80EC
:102C40004748D835C8F828402830AF60C5E9000BA0
:102C5000C5E903A6C5F814A0C5F818A0C5F81CA0BE
:102C60002846C5F820A0FEF7A7FB20B14FF49C71C1
:102C70003DA001F00AFAA566002205212620AC62DB
:102C8000FEF78AFD2620FEF77BFD3FE73B4A934295
:102C9000FBD18A6D42F480228A65896D824601F4F7
:102CA000802105913021CDE9001602AAB34682E8C1
:102CB000200569467046FEF7EDFB02AA00960196D4
:102CC00082E8200569462448FEF7E4FB2449DFF842
:102CD000B08028394046C8F80010C0E90165C0E955
:102CE0000359C8F81450C8F81850C8F81C50C8F850
:102CF0002050FEF761FB20B14FF4B6711AA001F02D
:102D0000C4F91F4EC4F86C804836C8F82840C6E99C
:102D10000275C6E904951248B561F5613C38356223
:102D2000C6E9000B3046FEF747FB20B140F27D11AB
:102D30000DA001F0AAF9A666002205212720B462A1
:102D4000FEF72AFD27209EE70050004000100240B9
:102D500000080048000C004800040048003801400A
:102D600058000240940400202E2E2F5372632F75BA
:102D7000736172742E6300000044004000480040FC
:102D8000B40500207047012001F0B9F9FBE70120EC
:102D900001F0B5F9FBE7FEE700EB8100006E00F003
:102DA000F840704700EB8100006E00F0F84070477B
:102DB0008068C0F3C00070478068C0F3800070472F
:102DC0008068C0F38000704770B54FF0007401F068
:102DD000007394FAA4F4B4FA84F4E3404FF0F87466
:102DE00094FAA4F501F0F871B5FA85F500EB8300CB
:102DF00021FA05F50726AE4094FAA4F44369B4FA23
:102E000084F4E140B3438A401343436170BD70B51D
:102E10004FF0007401F0007394FAA4F4B4FA84F44F
:102E2000E3404FF0F87494FAA4F501F0F871B5FAA4
:102E300085F500EB830021FA05F50726AE4094FAEC
:102E4000A4F44369B4FA84F4E140B3438A401343E1
:102E5000436170BD00EB8100016E21F00041114320
:102E60000166704700EB8100016E21F000411143C3
:102E700001667047012001F042F9FBE7F0B53448E4
:102E800099B032490024C0E9001400F10C01012579
:102E90000426846081E8700002218461C0E9074152
:102EA0004FF4E8614462C0E90A51A9020163C0E934
:102EB0000D54C463FDF7A8FF18B15A2125A001F0F5
:102EC000E4F815A922481594FDF70EFD18B162210A
:102ED00020A001F0DAF823480F9010A906207F27E0
:102EE00081E89100CDE913640FA91948FDF774FD3D
:102EF00018B16F2117A001F0C8F81B480F900C20E3
:102F000010900FA91248FDF767FD18B1782111A0A4
:102F100001F0BBF81548009001A90820049681E84B
:102F20009100CDE905450794089409940A940B94FF
:102F3000694607480C94FDF771FA002803D08C21EC
:102F400004A001F0A2F819B0F0BD00000000045088
:102F5000C80000202E2E2F5372632F6164632E63EE
:102F6000000000000004002A0008302E001060322B
:102F700000B5104989B00E4808600846FEF75CF9B4
:102F800018B147210CA001F080F8002000900190BA
:102F9000029003900246049069460648FEF78AF8BC
:102FA000002803D0532104A001F06FF809B000BD40
:102FB000007400407C0100202E2E2F5372632F647A
:102FC00061632E6300000000214808B5816C41F068
:102FD00001018164806C002200F001000090052155
:102FE0000B20FEF7D9FB0B20FEF7CAFB00220521C0
:102FF0000C20FEF7D1FB0C20FEF7C2FB00220521BE
:103000000D20FEF7C9FB0D20FEF7BAFB00220521BB
:103010000E20FEF7C1FB0E20FEF7B2FB00220521B9
:103020000F20FEF7B9FB0F20FEF7AAFB00220521B7
:103030001020FEF7B1FB1020FEF7A2FB00220521B5
:103040001120FEF7A9FBBDE808401120FEF798BB50
:103050000010024010B5EEB0142279496846FDF721
:1030600050F90021684601F060F8764C744914224A
:103070002060143105A8FDF744F9002105A801F0EE
:1030800054F86F496060142228310AA8FDF739F915
:1030900000210AA801F049F86949A06014223C31D6
:1030A0000FA8FDF72EF900210FA801F03EF86449A2
:1030B000E0601422503114A8FDF723F9002114A870
:1030C00001F033F85E4920611422643119A8FDF73C
:1030D00018F9002119A801F028F859496061142253
:1030E00078311EA8FDF70DF900211EA801F01DF88A
:1030F0005349A06114228C3123A8FDF702F9002165
:1031000023A801F012F84E49E0611422A03128A84A
:10311000FDF7F7F8002128A801F007F848492062D8
:103120001422B4312DA8FDF7ECF800212DA800F0F1
:10313000FCFF434960621422C83132A8FDF7E1F870
:10314000002132A800F0F1FF3D49A0621422DC31D9
:1031500037A8FDF7D6F8002137A800F0E6FF384978
:10316000E0621422F0313CA8FDF7CBF800213CA826
:1031700000F0DBFF20631422334941A8FDF7C1F8BA
:10318000002141A800F0D1FF2F49606314221431BF
:1031900046A8FDF7B6F8002146A800F0C6FF2A4968
:1031A000A063142228314BA8FDF7ABF800214BA8EF
:1031B00000F0BBFF2449E06314223C3150A8FDF726
:1031C000A0F8002150A800F0B0FF1F49206414228D
:1031D000503155A8FDF795F8002155A800F0A5FF3E
:1031E00019496064142264315AA8FDF78AF8002155
:1031F0005AA800F09AFF1449A064142278315FA8FD
:10320000FDF77FF800215FA800F08FFF0E49E06412
:1032100014228C3164A8FDF774F8002164A800F032
:1032200084FF094920651422A03169A8FDF769F8D7
:10323000002169A800F079FF60656EB010BD000044
:103240006C4B000800000020704C0008F0B53A48B4
:1032500087B0C16C41F00401C164C16C01F004018C
:103260000591C16C41F08001C164C16C01F0800125
:103270000591C16C41F00101C164C16C01F0010113
:103280000591C16C41F00201C164C16C01F0020101
:103290000591C16C41F00801C164C06C274E00F07B
:1032A00008004FF434650590002229463046FEF7A9
:1032B000CDF9234F0022C0213846FEF7C7F900247C
:1032C0004FF40250CDE90004694630460294FEF7FF
:1032D000E1F800950125CDE9015469463046039493
:1032E000FEF7D8F8280200900220CDE901044FF043
:1032F00090460394694630460494FEF7CBF8E80202
:10330000CDE90004694630460294FEF7C3F84FF455
:103310004270CDE90004694638460294FEF7BAF8D7
:10332000C0200090CDE90154694638460394FEF769
:10333000B1F807B0F0BD00000010024000080048DE
:1033400000040048134810B5114901604FF4827120
:10335000416000214FF4E062C0E9021202220261E2
:1033600001224261920482613822C0E907210722CA
:103370004162C0E90A1201634163FFF757F8002870
:1033800005D0BDE81040512103A000F07EBE10BD65
:10339000003C0040900100202E2E2F5372632F73AB
:1033A00070692E630000000010B5174888B04FF018
:1033B000804101604FF4FA510024C0E90114611EFC
:1033C000C0E903148461FFF70FF918B14B210FA076
:1033D00000F05BFE4FF48050039003A90A48FFF70A
:1033E00073F918B1512109A000F04FFE009469460D
:1033F00005480294FFF7C8F8002803D0582103A01D
:1034000000F043FE08B010BDF40100202E2E2F5313
:1034100072632F74696D2E63000000003EB5104882
:103420000E490024C0E9001440F63441C0E90241CD
:103430008461FFF7D9F818B168210AA000F025FED1
:1034400020200090694602940548FFF79DF8002867
:1034500003D06F2103A000F018FE3EBD0010004015
:10346000340200202E2E2F5372632F74696D2E6349
:10347000000000003EB511480F490024016041F6EC
:103480003F71C0E90114C9108461C160FFF7ACF855
:1034900018B17F210AA000F0F8FD202000906946B5
:1034A00002940648FFF770F8002803D0862104A094
:1034B00000F0EBFD3EBD000000140040740200204F
:1034C0002E2E2F5372632F74696D2E63000000003F
:1034D0000F4810B50D4901604FF4E1314160002102
:1034E00081600C22C160C0E904128161C161016286
:1034F0000B460A464162FEF753FF002805D0BDE89F
:103500001040572103A000F0C0BD10BD0050004086
:10351000B40200202E2E2F5372632F7573617274C4
:103520002E630000114810B50F4901604FF49661F9
:103530004160002181600C22C160C0E904128161F8
:10354000C1610162102141620902002381631A46B0
:103550001946FEF725FF002805D0BDE810406D2173
:1035600003A000F092BD10BD003801402C030020E4
:103570002E2E2F5372632F75736172742E630000A9
:10358000114810B50F4901604FF4E131416000214D
:1035900081600C22C160C0E904128161C1610162D5
:1035A000102141620902002381631A461946FEF781
:1035B000F7FE002805D0BDE81040832103A000F0ED
:1035C00064BD10BD00440040A40300202E2E2F53E4
:1035D00072632F75736172742E630000114810B509
:1035E0000F4901604FF461414160002181600C226C
:1035F000C160C0E904128161C161016210214162B0
:103600000902002381631A461946FEF7C9FE002805
:1036100005D0BDE81040992103A000F036BD10BDD3
:10362000004800401C0400202E2E2F5372632F757B
:10363000736172742E630000012000F060FDFBE7EF
:10364000012000F05CFDFBE7FEE7012000F057FDE4
:10365000FBE7012000F053FDFBE770470907090E67
:10366000002806DA00F00F0000F1E02080F8141DB9
:10367000704700F1E02080F800147047012000F04E
:103680003EFDFBE7012000F03AFDFBE7012000F0E2
:1036900036FDFBE72DE9F041444C05468846E068DD
:1036A0000026810728680DD0E16801F003018142FE
:1036B00016D1A8B1E0686968C0F30210401C8842C6
:1036C0000ED120E0012804D0022805D0032807D11C
:1036D00008E02168890701E021684905002907DB26
:1036E00001265FE02168890302D421684903F5E7D8
:1036F000E1686A686FF00F0321F0730103EB0212B7
:1037000011430143E160206820F080602060FDF7F4
:10371000A3FF074605E000BFFDF79EFFC01B022880
:1037200037D820680001F7D4B8F1000F18D0B8F1ED
:10373000010F1DD0287D4FF07E41400801EB406015
:10374000A96840EA01202169194A11400843206113
:10375000206840F080602060FDF77EFF07461AE099
:10376000A868297B000240EAC1602169114AECE7A0
:10377000288A1149400801EB4050A96840EA01201D
:1037800021690E4AE1E700BFFDF766FFC01B022872
:1037900001D9032606E020680001F5D52069A96952
:1037A000084320613046BDE8F0810000001002406F
:1037B000FF80FFF9FF80FF070000E0FFFF809FFF11
:1037C0002DE9F0413D4C06468846E068002581071A
:1037D00030680DD0E16801F00301814216D1A8B133
:1037E000E0687168C0F30210401C88420ED120E0EE
:1037F000012804D0022805D0032807D108E0216859
:10380000890701E021684905002907DB012551E00E
:103810002168890302D421684903F5E7E1687268E9
:103820006FF00F0321F0730103EB02121143014308
:10383000E160206820F080502060FDF70DFF074612
:1038400005E000BFFDF708FFC01B022829D820684B
:103850008000F7D4B8F1000F15D0307C4FF07E41D6
:10386000400801EB4060B16840EA01206169144AF8
:10387000114008436061206840F080502060FDF7EF
:10388000EBFE07460FE0B068317B000240EAC16002
:1038900061690C4AECE700BFFDF7DEFEC01B0228A1
:1038A00001D9032506E020688000F5D560697169BB
:1038B000084360612846BDE8F08100000010024026
:1038C000FF80FFF9FF80FF07F8B51C4D0646002476
:1038D000A86DC00002D5FDF7C3FF0DE0A86D40F054
:1038E0008050A865A86D00F080500090FDF7B8FFEB
:1038F000A96D21F08051A965B0F5007F04D0802E1C
:1039000007D94FF003040AE0802E08D9A02E01D871
:1039100004E001D1022402E0702E00D10124084805
:10392000016821F0070121430160006800F00700F1
:10393000A04201D00120F8BD0020F8BD00100240D7
:1039400000200240012000F0DAFBFBE7012000F03C
:10395000D6FBFBE70C4C4FF400764FF4FA750122CE
:1039600031462046FDF772FE284600F0C8FB0022D3
:1039700031462046FDF76AFE284600F0C0FB0120D4
:1039800000F0BDFBEBE700000008004800F0C3BBFF
:1039900070B5BAB0132023904FF4803024900012F9
:1039A00026904020279060202B9001250024CDE90F
:1039B00029540226CDE92D652820CDE930062F9522
:1039C000329623A83396FEF78BFA00B1FEE70F205C
:1039D00034900320CDE935043794042134A8389479
:1039E000FEF728F900B1FEE744F2170000901094AA
:1039F000CDE90E644FF0805001951F90029512940E
:103A00001020CDE903060005CDE90660059668465D
:103A1000FDF72EFF00B1FEE74FF00052D11000205D
:103A2000FEF73AFA4FF40070FDF7E8FE00B1FEE74A
:103A3000FEF7AAF94FF47A71B0FBF1F0FEF78CFDB6
:103A40000420FEF77DFD00220F21501EFDF7A4FE8D
:103A50003AB070BD0D48016841F4700101600C4836
:103A6000016841F001010160002181600268094B99
:103A70001A4002608214C260026822F4802202604E
:103A800081610249C00380390860704788ED00E019
:103A900000100240FFFFF6EA0148FEF78CBE00006E
:103AA0004406002010B50448FEF785FEBDE810402E
:103AB0000248FDF78DBB0000340200207C0100208D
:103AC0000148FEF778BE0000740200202DE9F0479F
:103AD0000268264B264D274E274F284C4FF0804A30
:103AE000984209D0504507D0A84205D0B04203D033
:103AF000B84201D0A04204D122F0700C4A6842EAD8
:103B00000C02DFF87CC0DFF87C80DFF87C90984204
:103B10000FD050450DD0A8420BD0B04209D0B842CA
:103B200007D0A04205D0604503D0404501D04845AC
:103B300003D122F44075CA682A434D6922F08002FD
:103B40002A4302608A68C2620A688262984207D089
:103B5000A04205D0604503D0404501D0484501D181
:103B60000969016301214161BDE8F087002C014032
:103B70000004004000080040000C004000340140F8
:103B800000400140004401400048014010B58468F5
:103B900042EA032224F47F440A432243826010BD98
:103BA000826822F070020A4342F007018160704788
:103BB00010B5036A046A24F001040462846924F0E5
:103BC000F00444EA021423F00A020A438461026208
:103BD00010BD10B5036A23F0100303628369046A01
:103BE00023F4704343EA023224F0A00343EA0111B4
:103BF0008261016210BD012000F081FAFBE790F8BC
:103C00002410C90706D001684A68836A22F400328A
:103C10001A434A6090F82410890706D501684A685B
:103C2000C36A22F480321A434A6090F8241049078C
:103C300006D501684A68036B22F480221A434A6061
:103C400090F82410090706D501684A68436B22F4EE
:103C500000421A434A6090F82410C90606D501684C
:103C60008A68836B22F480521A438A6090F8241089
:103C7000890606D501688A68C36B22F400521A438C
:103C80008A6090F82410490611D501684A68036CCF
:103C900022F480121A434A60016CB1F5801F06D1EC
:103CA00001684A68436C22F4C0021A434A6090F8E3
:103CB0002410090606D501684A68806C22F40022A7
:103CC00002434A607047F8B5002604464667FDF790
:103CD000C3FC0546206800686FF07E47000708D5E2
:103CE0002B4600224FF400112046009700F084F983
:103CF00060B92068006840070AD52B4600224FF4BF
:103D000080012046009700F077F908B10320F8BD44
:103D1000202084F8710084F8720084F8706000201C
:103D2000F8BD10B5806A0021A0F85A10A0F8521012
:103D3000FEF712FE10BD01680A6822F490720A6054
:103D400001688A6822F001028A60202180F87210DE
:103D500000210166704700002DE9F041044601682A
:103D600080682369E6691843636910250027334397
:103D70001843954A0B68954E334003430B60206807
:103D80004168E36821F44051194341602168A0690A
:103D9000914201D0236A18438B6823F430630343B4
:103DA0008B608B4B21688B4899420DD1D0F88800ED
:103DB00010F0030006D001285AD0022856D003285C
:103DC00059D157E0012556E0834B99420BD1D0F8E9
:103DD000880010F00C0047D0042849D0082845D0AE
:103DE0000C2848D146E07D4B99420BD1D0F8880091
:103DF00010F0300038D010283AD0202836D03028A3
:103E000039D137E0764B99420BD1D0F8880010F0C9
:103E1000C00029D040282BD0802827D0C0282AD104
:103E200028E0704B99420ED1D0F8880010F4407011
:103E30001AD0B0F5807F1BD0B0F5007F16D0B0F55A
:103E4000407F18D116E0914215D1D0F8880010F4C7
:103E5000406009D0B0F5806F0AD0B0F5006F05D092
:103E6000B0F5406F07D105E0002504E0022502E02F
:103E7000042500E008255C4B00264FF400409142E9
:103E80003DD135B1022D07D0042D07D0082D10D11A
:103E900007E0FDF77FFF03E0184602E0FDF79AFF19
:103EA000A8B3626802EB4201814202D8B0EB023F44
:103EB00001D9012775E0DFF834815DB1022D0CD006
:103EC000042D13D0082DF4D150082905401846F1CF
:103ED000000105E0FDF75EFF0AE050084449F5E700
:103EE0000023FCF7DDF9A0F5407156E0FDF772FF05
:103EF0006268010E0302500818187141F0E7E16989
:103F00004FF6EF7881422FD1092DD2D200E048E060
:103F1000DFE805F006092005230505052600C8E7AA
:103F2000FDF738FF01E0FDF745FF4100D4F804003C
:103F300001EB5001B1FBF0F080B2A0F1100141455E
:103F4000B7D84FF6F0710140C0F34200014320683A
:103F5000C16026E027496068EAE7FDF73BFFE4E738
:103F60004FF480316068E3E7092DA2D2DFE805F065
:103F700006091E052205050525009AE7FDF70AFF3B
:103F800001E0FDF717FF0146606801EB500100BF3B
:103F9000B1FBF0F080B2A0F11001414589D8216851
:103FA000C860266638466666BDE8F081606803EB47
:103FB0005001EDE7FDF70EFFE5E7616800EB51000A
:103FC000B0FBF1F0E6E7000000800040F369FFEF8E
:103FD000003801400010024000440040004800400A
:103FE000004C0040005000400024F400FFFC0F0093
:103FF000000024F40048E8012DE9F04198461746F6
:104000000E460446069D1DE0681C1BD02DB1FDF731
:1040100023FBA0EB0800A84214D92068016821F412
:10402000D07101602068816821F001018160202049
:1040300084F8710084F87200002084F87000032076
:10404000BDE8F0812068C06936EA000004D0002095
:10405000B842D9D00020F3E70120F9E70148FEF784
:104060007DBC00002C0300200148FEF777BC000057
:10407000A40300200148FEF771BC00001C040020CE
:10408000FEE7012000F03BF8FBE7FEE702E008C88E
:10409000121F08C1002AFAD170477047002001E0C2
:1040A00001C1121F002AFBD17047704700207047E2
:1040B000FDF7E0FAFFF76CFCFFF7C8F8FEF784FFA6
:1040C000FEF7DCFEFEF754FFFFF73CF9FFF700FABE
:1040D000FFF728FAFFF754FAFFF780FAFFF79EF987
:1040E000FFF7C8F9FFF760F9FEF7B4FF00F00EF82C
:1040F000FEE701460020842900D0C81C704710B597
:1041000000B9012000F002FB002010BD10B500F046
:1041100023FB002010BD10B500F054FC012803D093
:10412000BDE8104000F00CBC10BD3EB504460D4685
:10413000B0F90800FFF7DDFF02A9CDE90001208AF0
:104140002B4682B2D4E9001000F010FC012801D007
:1041500000203EBD02983EBD2DE9F041184C0F46AF
:104160000546E6682068001D00F018FA38B9206896
:1041700090F82C1001208840216981432161681C3E
:1041800007D137B12168BDE8F0410E48091D00F0A4
:104190003FBA20683544B5424560216805D2206C9D
:1041A000BDE8F041091D00F01BBAE06B091D00F0ED
:1041B00017FAA06A854200D2A562BDE8F08100002E
:1041C00084000020605300202DE9F041054600F0F6
:1041D0002BFA2E4CA068401CA06020682C4F10B118
:1041E000606940B32DE02560A068012829D1002630
:1041F00006EB860007EB800000F0E4F9761C072E42
:10420000F6D323488C3000F0DDF92148A03000F0CF
:10421000D9F91F48B43000F0D5F91D48C83000F076
:10422000D1F91B48DC3000F0CDF919488C30E0633F
:104230001430206405E02068E96AC06A884200D82A
:104240002560606A401C6062E96A0120226988403A
:104250001043206101EB810007EB8000291D00F075
:10426000D7F900F001FA606900280CD02068E96AEB
:10427000C06A884207D207494FF080500860BFF3F8
:104280004F8FBFF36F8FBDE8F081000084000020E6
:104290008452002004ED00E070B5114E114C17E07F
:1042A00000F090FA3068B8B100F0FEFB00F0BCF905
:1042B000F068C568281D00F071F9A068401EA06074
:1042C0006068401E606000F0CFF9284600F00CF8EE
:1042D00060680028E4D170BD00F0E6FBF8E700005C
:1042E0004C5300208400002010B50446006B00F001
:1042F000CFF92046BDE8104000F0CAB910484FF48D
:104300009841420706D0C01D0D4920F00700411A10
:10431000C1F598410B4A00230144C2E90003083962
:10432000103A21F0070111604B600B600B1AC0E9D5
:10433000001393604FF000405360D060704700005E
:104340008406002070000020084C4FF08056084D75
:10435000FFF7A2FF2068012804D92E60BFF34F8F1A
:10436000BFF36F8F00F02CF9F2E7000084520020B9
:1043700004ED00E02DE9F0479A46DDE90984814625
:104380006FF00303206B03EB82021044089D20F0C2
:104390000706700707D0502080F31188BFF34F8FB6
:1043A000BFF36F8FFEE723180A5C83F834200A5CA2
:1043B00012B1401C1028F6D3002784F84370072D53
:1043C00000D30625E562C4E91157201D00F005F968
:1043D00004F1180000F001F92461C5F107006462DE
:1043E000A061E764276584F8547052464946304618
:1043F00000F0BEF82060B8F1000F01D0C8F800400E
:10440000BDE8F08730B5114900E011460A688242E4
:10441000FBD34B685C18844203D140681844486061
:10442000084643681C18944209D1084C103C246883
:10443000A24209D052681A4442600A6812680260B7
:10444000814200D0086030BD0460F9E770000020B0
:104450000648C16B096829B1C16BC968C968496858
:10446000816270474FF0FF31FAE7000084000020BE
:1044700008484068401C4FF0500080F3118804D079
:10448000BFF34F8FBFF36F8FFEE7BFF34F8FBFF3C5
:104490006F8FFEE7780000202DE9F04105460027E8
:1044A00000F090F9314E306808B9FFF727FFF06847
:1044B00005424BD1C5B3083568070ED005F007009B
:1044C000C0F108000544680707D0502080F3118828
:1044D000BFF34F8FBFF36F8FFEE72DB37068854238
:1044E00034D82248103001460C6801E020460C46C2
:1044F0006168A94202D221680029F7D131688C4253
:1045000024D007682168016060680837411B1029C2
:104510000FD96019420708D0502080F31188BFF3EB
:104520004F8FBFF36F8FFEE710E041606560FFF7CC
:1045300069FF61687068401A7060B268904200D28A
:10454000B060F06801430020C4E9000100F0ACFA5B
:10455000780707D0502080F31188BFF34F8FBFF347
:104560006F8FFEE73846BDE8F08100006000002054
:1045700010B5031F4FF080741C601B1F21F0010158
:104580001960191F044B0B6014390A60091F6FF082
:10459000020244380A6010BD71440008D0E90132BB
:1045A00001699A60D0E901235A604A68824201D1C8
:1045B00082684A60002202610868401E08607047F5
:1045C0007047704700F108014FF0FF32C0E9011257
:1045D000C1600161002101607047002101617047E5
:1045E00030B50B685A1C02D000F1080202E00269E3
:1045F00004E02246546825689D42FAD953684B600E
:1046000099608A60516008610168491C016030BD91
:1046100042684A6093688B60936859609160086152
:104620000168491C01607047502080F31188BFF376
:104630004F8FBFF36F8F0A494868401C48600128BC
:104640000CD10848006810F0FF0F07D0502080F30D
:104650001188BFF34F8FBFF36F8FFEE770470000E5
:104660007800002004ED00E00849486828B1401EA9
:10467000486001D180F311887047502080F3118881
:10468000BFF34F8FBFF36F8FFEE70000780000206D
:1046900070B5002827D0144DA0F108046168E868BF
:1046A000014207D1502080F31188BFF34F8FBFF331
:1046B0006F8FFEE722683AB1502080F31188BFF374
:1046C0004F8FBFF36F8FFEE78143616000F07AF890
:1046D00060686968084468602046FFF793FEBDE89B
:1046E000704000F0E1B970BD6000002006484FF452
:1046F0007A710068B0FBF1F14FF0E020491E416192
:1047000007210161704700005C00002010B5020025
:1047100014D00F48006B38B1502080F31188BFF3DC
:104720004F8FBFF36F8FFEE700F04CF8002110466B
:10473000FFF712FD00F0B8F9002807D105494FF046
:1047400080500860BFF34F8FBFF36F8F10BD000024
:104750008400002004ED00E01CB516480024CDE9DB
:1047600000402346802214A1154800F0FFF80128DC
:1047700009D0401C1CD1502080F31188BFF34F8F0B
:10478000BFF36F8FFEE7502080F31188BFF34F8F88
:10479000BFF36F8F07484FF0FF312C388162012142
:1047A0004161C460FFF781FCBDE81C4000F058B8CF
:1047B0001CBD0000B000002049444C450000000032
:1047C000494300080248016B491C0163704700001F
:1047D0008400002010B5204C206B10B10120E06156
:1047E00010BD0020E061FFF761FCA063626B9042A6
:1047F00004D92168821ACB6C1A44CA6460632068A9
:1048000021680068096B884204D821682068343127
:10481000FFF7D7FE20691149B0FA80F0C0F11F0000
:1048200000EB800051F820206AB101EB800000F11C
:104830000802416849684160914201D1496841607C
:10484000C868206010BD502080F31188BFF34F8FDF
:10485000BFF36F8FFEE70000840000208452002029
:104860001CB532480168324A914207D1502080F38A
:104870001188BFF34F8FBFF36F8FFEE700682C499D
:10488000491E884207D1502080F31188BFF34F8F13
:10489000BFF36F8FFEE7274908780190FF2008706B
:1048A00008788DF800009DF800009DF8002000F0C9
:1048B000F000904207D0502080F31188BFF34F8F53
:1048C000BFF36F8FFEE79DF800001B4A00F0500019
:1048D00010700720906005E09DF800305B008DF8B7
:1048E0000030401E9DF800301B06F5D4000200F495
:1048F000E0609060019808700C482030016841F435
:1049000070010160016841F070410160FFF7EEFE47
:1049100000205060FBF774FC0848016841F04041FA
:104920000160FBF75DFC00201CBD000000ED00E015
:1049300071C20F4100E400E07800002034EF00E095
:1049400010B5502080F31188BFF34F8FBFF36F8FE6
:1049500000F046F818B104494FF08050086000207C
:1049600080F3118810BD000004ED00E02DE9FF5F29
:104970008346DDE90E87994616468A469000FFF782
:104980008BFD05001AD05820FFF786FD040012D0D9
:1049900025630021CDE90241CDE900874B4632462F
:1049A00051465846FFF7E6FC2046FFF70DFC012074
:1049B00004B0BDE8F09F2846FFF76AFE4FF0FF30D5
:1049C000F6E700000548416919B1006B18B10020F5
:1049D00070470120704702207047000084000020CB
:1049E0002DE9F0412E4C0027206B40B1A069401CFE
:1049F000A061E06900B101273846BDE8F081E668B2
:104A0000761CE66013D1E06B006838B1502080F36B
:104A10001188BFF34F8FBFF36F8FFEE7E06B216C00
:104A2000E1632064206A401C2062FFF711FDA06A48
:104A3000DFF87080864209D3E06B006880B1E06BDC
:104A4000C068C568686886420DD2A0622068C06AE6
:104A500000EB800158F821000128CAD90127C8E7D6
:104A60004FF0FF30F1E7281DFFF798FDA86A18B155
:104A700005F11800FFF792FDE86A012122698140E3
:104A80001143216100EB800108EB8100291DFFF734
:104A9000BFFDE86A2168C96A8842CDD30127CBE708
:104AA00084000020845200202DE9F0472C4D002482
:104AB0002746286B38B1FFF7B7FD286B401E2863E7
:104AC000286B40B146E0502080F31188BFF34F8F30
:104AD000BFF36F8FFEE7A968224E0120D1B3A6F184
:104AE000B40980463068E8B1F068C46804F1180081
:104AF000FFF754FD201DFFF751FDE06A2A6908FA0F
:104B000000F11143296100EB800109EB8100211DB7
:104B1000FFF77EFDE06A2968C96A8842E2D3C5F8DA
:104B20001C80DFE70CB1FFF793FCAC6944B146464B
:104B3000FFF756FF00B1EE61641EF9D10020A861B5
:104B4000E86938B10849012738070860BFF34F8F7B
:104B5000BFF36F8FFFF788FD3846BDE8F087000090
:104B6000840000203853002004ED00E0684E000867
:104B7000553900080000000000000000800000001F
:104B80009C4D000891030008FDFF0000000000009C
:104B900080000000C04D000883400008FDFF0000B9
:104BA0000000000080000000D84D00080B04000841
:104BB000FDFF00000000000080000000F04D000834
:104BC0007D360008FDFF00000000000080000000AE
:104BD000084E00088D360008FDFF000000000000B0
:104BE00080000000204E000885360008FDFF000010
:104BF0000000000080000000384E00088903000813
:104C0000FDFF00000000000080000000504E000882
:104C1000752E0008FDFF000000000000800000006D
:104C20006C4D0008A3030008FDFF00000000000019
:104C300080000000844D000813040008FDFF000000
:104C40000000000080000000A84D00089B03000841
:104C5000FDFF00000000000080000000CC4D0008B7
:104C60004B360008FDFF000000000000800000003F
:104C7000E44D000853360008FDFF0000000000006E
:104C800080000000FC4D000839360008FDFF0000E0
:104C90000000000080000000144E000841360008AB
:104CA000FDFF000000000000800000002C4E000806
:104CB00001040008FDFF000000000000800000006B
:104CC000444E0008F73B0008FDFF00000000000014
:104CD000800000005C4E000845390008FDFF000020
:104CE0000000000080000000784D00084D390008E9
:104CF000FDFF00000000000080000000904D000853
:104D0000872D0008FDFF000000000000800000006B
:104D1000B44D00088F2D0008FDFF000000000000CA
:104D200080000000000000000000000001020304F9
:104D300006070809A0860100400D0300801A06003E
:104D400000350C0040420F0080841E0000093D0029
:104D500000127A000024F40000366E010048E801D9
:104D6000006CDC0200000000010203046D79546154
:104D7000736B3130000000006D795461736B323019
:104D8000000000006D795461736B31310000000048
:104D90006D795461736B3231000000006D7954619C
:104DA000736B3032000000006D795461736B3132E7
:104DB000000000006D795461736B32320000000016
:104DC0006D795461736B3033000000006D7954616C
:104DD000736B3133000000006D795461736B3034B4
:104DE000000000006D795461736B313400000000E5
:104DF0006D795461736B3035000000006D7954613A
:104E0000736B3135000000006D795461736B30367F
:104E1000000000006D795461736B313600000000B2
:104E20006D795461736B3037000000006D79546107
:104E3000736B3137000000006D795461736B30384B
:104E4000000000006D795461736B31380000000080
:104E50006D795461736B3039000000006D795461D5
:104E6000736B31390000000064656661756C7454C1
:104E700061736B00944E000800000020C800000021
:104E80008C4000085C4F0008C8000020B0560000AD
:104E90009C4000080000000000000000000000002E
:104EA0000000000000000000000000000000000002
:104EB00000000000000000000000000000000000F2
:104EC00000000000000000000000000000000000E2
:104ED00000000000000000000000000000000000D2
:104EE00000000000000000000000000000000000C2
:104EF00000093D000000000000000000000000006C
:104F000000000000000000000000000000000000A1
:104F1000AAAAAAAA000000000000000000000000E9
:104F20000000000000000000000000000000000081
:104F30000000000000000000000000000000000071
:104F40000000000000000000000000000000000061
:0C4F500000000000000000000000000055
:04000005080001AD41
:00000001FF
