:020000040800F2
:10000000D81300207D02000833220008F91D0008E3
:100010003122000889030008492A00080000000076
:10002000000000000000000000000000C101000806
:100030008B030008000000001502000811250008CD
:10004000970200089702000897020008970200082C
:10005000970200089702000897020008970200081C
:10006000970200089702000897020008970200080C
:1000700097020008970200089702000897020008FC
:1000800097020008970200089702000897020008EC
:1000900097020008970200089702000897020008DC
:1000A00097020008970200089702000897020008CC
:1000B00097020008970200089702000897020008BC
:1000C00097020008970200089702000897020008AC
:1000D000970200089702000897020008970200089C
:1000E000970200089702000897020008970200088C
:1000F000970200089702000897020008970200087C
:10010000970200089702000897020008970200086B
:10011000970200089702000897020008970200085B
:10012000970200089702000897020008970200084B
:10013000970200089702000897020008970200083B
:10014000970200089702000897020008970200082B
:10015000970200089702000897020008970200081B
:10016000970200089702000897020008970200080B
:10017000970200089702000897020008000000009C
:1001800097020008970200089702000897020008EB
:1001900097020008970200089702000897020008DB
:1001A000970200089702000897020008DFF80CD0B9
:1001B00000F0D8F8004800476D2A0008D813002046
:1001C0002B4B19680868B0E8F04F80F30988BFF33B
:1001D0006F8F4FF0000080F311887047000000001F
:1001E00006480068006880F3088862B661B6BFF30D
:1001F0004F8FBFF36F8F00DF00BF00BF08ED00E03F
:10020000DFF80C00016841F470010160704700BF25
:1002100088ED00E0EFF30980BFF36F8F144B1A688D
:100220001EF0100F08BF20ED108A20E9F04F10607B
:1002300008B44FF0500080F31188BFF34F8FBFF325
:100240006F8F02F09DFF4FF0000080F3118808BC13
:1002500019680868B0E8F04F1EF0100F08BFB0EC46
:10026000108A80F30988BFF36F8F704700BF00BF0B
:1002700030000020EFF305807047000006488047FB
:1002800006480047FEE7FEE7FEE7FEE7FEE7FEE77B
:10029000FEE7FEE7FEE7FEE7DD250008AD0100080A
:1002A0002DE9F05F0546002092469B4688460646AB
:1002B000814640241BE0284641464746224600F03E
:1002C00041F853465A46C01A914110D31146184678
:1002D000224600F028F82D1A67EB01084F46224607
:1002E0000120002100F01FF817EB00094E41201EED
:1002F000A4F10104DFDC484631462A464346BDE806
:10030000F09F40EA01039B0703D009E008C9121FD0
:1003100008C0042AFAD203E011F8013B00F8013BBF
:10032000521EF9D27047202A04DB203A00FA02F16B
:10033000002070479140C2F1200320FA03F31943D3
:1003400090407047202A04DB203A21FA02F0002175
:10035000704721FA02F3D040C2F1200291400843D5
:1003600019467047064C074D06E0E06840F001036F
:1003700094E8070098471034AC42F6D3FFF71AFF11
:100380005035000870350008FEE77047F0B50446A8
:1003900090F8580000269BB00D4601280DD0012092
:1003A00084F85800324920680027884208D1314932
:1003B000009101F02CFD58B10EE002201BB0F0BD01
:1003C000E06D40F02000E06584F858700120F5E70A
:1003D000009801F01CFD48B1E06D40F02000E065A0
:1003E0005FF0010684F858703046E7E722482A6833
:1003F00040F61F71002A826822F460421FD0636BAE
:1004000042EA43326B681A4382602268936803F0C1
:100410000303012B02D11268D207E3D1009A92683C
:1004200002F00302012A03D1009A1268D207D9D13F
:10043000AB682A681A4383688B431A4315E08260CD
:100440002268936803F00303012B02D11268D207DC
:10045000C8D1009A926802F00302012A03D1009ADF
:100460001268D207BED182688A438260BAE7000070
:100470000000045000010450000304502DE9F8432B
:1004800000270446009790F85800DFF8F4930D46D3
:10049000B846012811D0012684F85860206801F080
:1004A000B2FC60B1E06D40F02000E0655FF0010754
:1004B00084F858803846BDE8F8830220FBE7686876
:1004C000052812D8022807D0032807D0042807D00F
:1004D000052807D0062007E00C2005E0122003E0E5
:1004E000182001E04FF480706860A9884FF4407CC8
:1004F00001F440739CFAACFCBCFA8CFC206823FA33
:100500000CF300EB83002A6801F01F014FF01F0C71
:100510000CFA01FC036BC2F3846223EA0C038A40E9
:10052000134303632068816811F00C0F24D1AA687B
:100530002968B2F1004F20D001F06DFC20684169BC
:1005400021F00041416120686969C268C2F3C102BB
:10055000520091402A69042A17D000EB82002B68D0
:10056000DFF820C3026E03F0F84302EA0C020B43EB
:100570001A4342F0004101667AE0002201F04BFC90
:100580002068416941F00041DCE7002101F035FCC1
:10059000400320684FF0000173D001F02EFC90FA68
:1005A000A0F0B0FA80F1286842036FD090FAA0F072
:1005B000B0FA80F0814204D100221146206801F097
:1005C0004DFC0121206801F018FC400320684FF029
:1005D00001015ED001F011FC90FAA0F0B0FA80F1B8
:1005E000286842035AD090FAA0F0B0FA80F0814215
:1005F00004D100220121206801F030FC0221206892
:1006000001F0FBFB400320684FF0020149D001F0EC
:10061000F4FB90FAA0F0B0FA80F12868420345D0CC
:1006200090FAA0F0B0FA80F0814204D100220221B9
:10063000206801F013FC0321206801F0DEFB400379
:1006400020684FF0030134D001F0D7FB90FAA0F0FE
:10065000B0FA80F12868420330D090FAA0F0B0FAE6
:1006600080F0814204D100220321206801F0F6FBD2
:100670002068816801F00301012925D121E000E013
:1006800004E001F0BAFBC0F384618CE7C0F384603E
:1006900090E701F0B2FBC0F38461A1E7C0F384608E
:1006A000A5E701F0AAFBC0F38461B6E7C0F384605C
:1006B000BAE701F0A2FBC0F38461CBE7C0F384602A
:1006C000CFE70168C9077FD12A7B296850F8B03F7E
:1006D000C1F3120C23EA0C0302F0200C4FF0FF329E
:1006E00002FA0CF20A40C2F312010B430360E968FC
:1006F000494569D12868410316D090FAA0F1B1FAB2
:1007000081F1491C09294FEA40312CD800290ED02B
:1007100090FAA0F1B1FA81F101F1010106FA01F6B6
:1007200008D1C0F3846109E0C0F38461E9E7C0F354
:100730008461F1E790FAA0F1B1FA81F101F10101D0
:1007400046EA816102D1C0F3846003E090FAA0F030
:10075000B0FA80F000EB40004FF4401202EB005082
:1007600041EA00012AE000290CD090FAA0F1B1FA88
:1007700081F100BF01F1010106FA01F605D1C0F3D4
:10078000846106E0C0F38461F4E790FAA0F1B1FA65
:1007900081F101F1010146EA816102D1C0F3846077
:1007A00003E090FAA0F0B0FA80F0374A00EB400086
:1007B00002EB005041EA000141F00071AA68206894
:1007C00000E001E001F027FBDFF8C0C02968304BF2
:1007D000304D3148614504D1826802F0E072120266
:1007E0000FD5994204D1826802F0E072D20108D597
:1007F000A9427FF45DAE826802F0E07252023FF5DA
:1008000057AE264A264E61451CD12168914201D03F
:10081000B142EED18168826801F0E07141F40001DB
:1008200022F0E0720A4382601E481F490068B0FB54
:10083000F1F0C0EB0010C00000E0401E0090002866
:10084000FBD135E699420AD12168914201D0B142EB
:10085000F7D1816801F0E07141F0807109E0A942AF
:10086000EFD121689142ECD1816801F0E07141F44F
:100870008001826822F0E0720A43826018E600007C
:1008800000007F4000F0FF03000050FE000052C750
:10089000000084CB010000800003045000000450DD
:1008A000000204500800002080841E00F8B54FF0BC
:1008B000000504002E46009502D0E06D10B107E05F
:1008C0000120F8BD204600F0FFF8266684F8586045
:1008D00020688168C1F3407119B18168714A114083
:1008E000816020688168C1F3007191B981686E4AA6
:1008F000114041F0805181606C486D490068B0FB47
:10090000F1F000EB8000400000E0401E0090002865
:10091000FBD120688168C1F3007141B9E16D41F0FC
:100920001001E165216E41F0010121660125E16DB3
:10093000C90602D401F067FA30B1E06D40F0100052
:10094000E06501252846F8BDE06D20F4807040F098
:100950000200E0652168886800F00300012802D1E8
:100960000868C0073FD15348814212D1D0F808111E
:1009700001F00301012903D1D0F80011C90732D1D8
:10098000D0F8081201F00301012925D1D0F80002A6
:1009900020E0494A9142816801F003010DD101290B
:1009A00002D10168C9071ED1D0F8081201F0030175
:1009B000012907D1D0F8001202E0012902D1016813
:1009C000C90710D1D0F8081101F00301012903D1A2
:1009D000D0F80001C00706D1384960688A6822F45F
:1009E0007C1202438A60E168A06BE2690843A16857
:1009F00041EA42310843616A40EA0140012904D1D9
:100A0000218D2F4A02EB41410843E16A29B101F4EB
:100A10007071226B014342EA01002168CA68294BC8
:100A20001A400243CA602068816811F00C0F14D18B
:100A3000A169626B890341EA4201226D1143C268D8
:100A400044F206039A430A43C260E06B01280CD0CB
:100A50002068016921F001010161206901282068F5
:100A6000016B21F00F0111D013E0D4E9100108430C
:100A7000D4E912121143084321680A6940F2FC7359
:100A80009A43104340F001000861E6E7226A521ED3
:100A900011430163E06D20F0020040F00100E065C9
:100AA00050E70000C0FFFF5FC0FFFF7F080000208D
:100AB00080841E0000000450000104500003045014
:100AC0000000FEFF07C0F0FF00B500680C4987B0CA
:100AD000884213D10B48C16C41F40051C164C06C11
:100AE000694600F400500590E02000900B20019032
:100AF000002002904FF0904000F0D6F807B000BD03
:100B000000000450001002402DE9F04704464079EF
:100B1000002715460E46012809D04FF0010984F838
:100B20000590022020713068042803D044E00220A0
:100B3000BDE8F0874FF003080DBB00F097F90746BA
:100B400005E000BF00F092F9C01B01280FD8206813
:100B5000406B0004F6D4012000F098F82168B069D9
:100B6000086416E000F082F9C01B012807D920694B
:100B700040F00800206184F804800320D8E7206852
:100B8000406B0028EEDB012000F080F82168B0699E
:100B900048642068816C40F2FF32AA409143F269B8
:100BA000AA40114381642068C16CFF22AA4091438E
:100BB000326AAA401143C1643069012808D1226811
:100BC000916B1F20A84081437069A840084390633F
:100BD0002268D06B0721A9408843B3683168194364
:100BE000F3681943A9400143D163206801684FF4B9
:100BF0008042AA40914301602268116840F6FC706F
:100C0000A84081437068A8400843106020680168CC
:100C1000C022AA409143016084F8049000206071D2
:100C200086E770B5040003D02079002510B105E0F7
:100C3000012070BD6571204600F008F80220207187
:100C4000256101202071002070BD000000B5006802
:100C50000C4987B0884213D10B48816D41F0005197
:100C60008165806D694600F000500590102000906D
:100C700003200190002002904FF0904000F014F803
:100C800007B000BD007400400010024070B504467B
:100C900000F0ECF80546601C00D0641C00F0E6F89B
:100CA000401BA042FAD370BD2DE9F84FDFF888B1A0
:100CB00000234FF0010C4FF0030A4FF00F090BF126
:100CC000040EB1E00CFA03F632406FD04C68022CEF
:100CD00001D0122C11D1DC0800EB84073C6A5D07BF
:100CE000ED0E09FA05F824EA0804D1F8108008FA94
:100CF00005F848EA0408C7F8208007685D0091F805
:100D000004800AFA05F408F00308A74308FA05F876
:100D100048EA0708C0F800804F68012F05D0022F6D
:100D200003D0112F01D0122F10D1D0F80880CF6836
:100D300028EA0408AF4047EA080787604768B743D6
:100D40000E79C6F300169E403E434660C668A64331
:100D50008C68AC403443C4604C68E40063D5374CC5
:100D6000256E45F001052566246E23F0030504F089
:100D700001040094324C2F19BD689C07260F09FA14
:100D800006F4A543B0F1904F04D02E4CA04203D1FD
:100D9000012421E000241FE02B4CA04201D10224B9
:100DA0001AE02A4CA04202D1032415E03BE0284C73
:100DB000A04201D104240FE0264CA04201D1052419
:100DC0000AE0254CA04201D1062405E0234CA042B4
:100DD00001D1072400E00824B4402C43BC60DBF8B8
:100DE00000405D464E689443F60300D514432C60E2
:100DF000DEF8004075464E689443B60300D51443B0
:100E00002C600D4D08352C684E689443F60200D5D1
:100E100014432C60084D0C352C684E689443B60280
:100E200000D514432C605B1C0A6832FA03F47FF48B
:100E300049AFBDE8F88F00000004014000100240F7
:100E4000000001400004004800080048000C004871
:100E5000001000480014004800180048001C00481A
:100E60000AB18161704781627047000001480068E3
:100E7000704700000400002002480168491C01601E
:100E8000704700000400002010B5032000F07CF83B
:100E90000F2000F005F800F017F8002010BD00004A
:100EA00010B5044607484FF47A710068B0FBF1F0C2
:100EB00000F00AFF00222146501E00F045F80020F5
:100EC00010BD0000080000201E4808B5016E41F06A
:100ED00001010166016E01F001010091816D41F097
:100EE00080518165806D00F080500090032000F0FB
:100EF0004BF8002211466FF00B0000F025F800229D
:100F000011466FF00A0000F01FF8002211466FF042
:100F1000090000F019F800221146501F00F014F8E3
:100F200000221146101F00F00FF800220F21901E22
:100F300000F00AF800220F21BDE80840501E00F022
:100F400003B8000000100240F0B40E4B1B680C46C2
:100F5000C3F30223C3F10705042D00D90425191D8D
:100F6000072901D2002300E0DB1E012606FA05F165
:100F7000491E214099409E40761E16403143F0BCE8
:100F800001F058B90CED00E0064900F007020868CE
:100F90004FF6FF03184040EA0220034A104308605E
:100FA000704700000CED00E00000FA051549B0F5AF
:100FB000007F0868C0F3412009D0022805D00868E6
:100FC00020F4C06040F48060086000207047012871
:100FD000FBD0086820F4C06040F4007008600A4844
:100FE0000A4A0068B0FBF2F03222504300E0401E93
:100FF00010B14A695205FAD448694005E5D5032085
:1010000070470000007000400800002040420F00C0
:101010000248006800F4C0607047000000700040A3
:101020002DE9F84F044600270088EC4D3E460105A7
:1010300004F1200B1DD5A06E78B1B0F5800F11D052
:10104000B0F5000F04D0B0F5400F22D001270FE01B
:10105000E86840F48030E8601BE00021201D01F0CA
:10106000F9F803E00021584601F08AF9070010D092
:101070003E462088C00426D5E06EC0B1B0F1807F26
:101080001AD0B0F1007F0DD0B0F1407F19D0012708
:1010900018E0D5F88800A16E20F440000843C5F898
:1010A0008800E6E7E86840F48030E86009E0002165
:1010B000201D01F0CFF803E00021584601F060F94F
:1010C0000746F7B13E46206880033AD5A86D4FF039
:1010D0000008C00009D4A86D40F08050A865A86D34
:1010E0004FF0010800F080500090DFF8F4A2DAF829
:1010F000001041F48071CAF80010FFF7B7FE814676
:1011000010E0D5F88800E16E20F040700843C5F883
:101110008800D8E7FFF7AAFEA0EB0900022801D952
:10112000032705E0DAF80000C005F3D5002F7CD0D6
:101130004FEA0706B8F1000F03D0A86D20F08050E9
:10114000A8652078C00707D0D5F88800A16B20F0EB
:1011500003000843C5F888002078800707D5D5F834
:101160008800E16B20F00C000843C5F88800207867
:10117000400707D5D5F88800216C20F030000843DF
:10118000C5F888002078000707D5D5F88800616C7D
:1011900020F0C0000843C5F888002078C00607D5B5
:1011A000D5F88800A16C20F440700843C5F8880089
:1011B0002078800607D5D5F88800E16C20F44060DF
:1011C0000843C5F888002088800507D5D5F8880031
:1011D000216E20F440200843C5F88800208840058F
:1011E00007D5D5F88800616E20F440100843C5F893
:1011F00088002078400607D5D5F88800216D20F4B6
:1012000040500843C5F888002078000607D5D5F877
:101210008800616D20F440400843C5F888002088AC
:10122000C00509D5D5F8880000E027E0A16D20F4BD
:1012300040300843C5F888002068C00207D5D5F8BB
:101240009C00E16D20F003000843C5F89C00208855
:101250004FF0006780044FF0806850D5D5F88800C3
:10126000216F20F040600843C5F88800206FB84225
:101270003DD1E86840F48010E86040E0D5F8900087
:1012800010F4407015D0D4F88810814211D0D5F8F0
:101290009000D5F8901020F4407041F48031C5F8EA
:1012A0009010D5F8901021F48031C5F89010C5F851
:1012B0009000C00711D0FFF7D9FD074641F28839E9
:1012C00007E000BFFFF7D2FDC11B494501D9032646
:1012D00030E7D5F890008007F4D5D5F89000D4F821
:1012E000881020F440700843C5F8900022E740457C
:1012F00005D10121201D00F0ADFF00B10646206898
:10130000000317D5D5F88800616F20F040600843CE
:10131000C5F88800606FB84204D1E86840F48010D6
:10132000E86007E0404505D10121201D00F092FF53
:1013300000B106462068400317D5D5F88800A16F94
:1013400020F040600843C5F88800A06FB84204D17F
:10135000E86840F48010E86007E0404505D10121CD
:10136000201D00F077FF00B10646208840041AD502
:10137000D5F88800E16F20F040500843C5F8880098
:10138000E06FB0F1805F03D0B0F1005F05D00AE0FC
:101390000221201D00F05EFF03E00221584600F00C
:1013A000EFFF00B106462088000408D5D5F8880074
:1013B000D4F8801020F080400843C5F888002068E9
:1013C000C00307D555F8880FD4F8841020F00040EA
:1013D000084328603046BDE8F88F00000010024046
:1013E000007000402DE9F0470F46050058D03E4EF2
:1013F000306800F00700B84209D2306820F00700DA
:1014000038433060306800F00700B84248D128788F
:10141000364CC0072CD06868032811D0022812D09F
:10142000216898B1490500293ADAA16821F0030141
:101430000143A160FFF71AFD804641F2883910E0B0
:1014400021688901EFE721688903ECE78907EAE76A
:10145000FFF70CFDA0EB0801494502D90320BDE8C8
:10146000F087A068696800F00C00B0EB810FEFD145
:101470002878800705D5A068A96820F0F000084307
:10148000A060306800F00700B8420BD9306820F047
:10149000070038433060306800F00700B84201D0E0
:1014A0000120DCE72878400705D5A068E96820F42A
:1014B000E0600843A0602878000706D5A068296985
:1014C00020F4605040EAC100A06000F03BF8A16841
:1014D000074AC1F30311515CC840064908600F2058
:1014E000FFF7DEFC0020BAE70020024000100240B7
:1014F000FC34000808000020014800687047000024
:10150000080000200448054900688968044AC1F3BE
:101510000221515CC84070470800002000100240C2
:101520003C3500080448054900688968044AC1F34D
:10153000C221515CC84070470800002000100240E2
:101540003C35000830B52D49002318468A682C4CDC
:1015500012F00C0F4FF4610514D08A68C2F38102B7
:10156000032A04D1CA6802F00302012A0AD08A6859
:10157000C2F38102012A19D08A68C2F38102022AC9
:1015800016D016E00A68120704D4D1F89420C2F3EA
:10159000032202E00A68C2F303121A4B53F8223006
:1015A0008A6812F00C0F04D1184602E0204600E0D1
:1015B00028468A68C2F38102032A1DD1C868CA6816
:1015C00000F00300C2F30212521C022804D00328C8
:1015D00005D0B3FBF2F004E0B4FBF2F001E0B5FBA0
:1015E000F2F0CA68C968C2F306225043C1F34161F0
:1015F000491C4900B0FBF1F030BD00000010024072
:101600000024F4000C35000870B5104C86B0164666
:10161000E06C0D4640F00100E064E06C694600F0CB
:1016200001000590A0150090022001900390002079
:10163000029004904FF09040FFF736FBA0683543CE
:1016400020F0FE402843A06006B070BD00100240AC
:101650002DE9F84304007DD02078FF4DC0065DD50C
:10166000A86810F00C0F0AD0A0690028286873D071
:1016700040F001002860FFF7F9FB064655E02868B6
:10168000800702D5A0690028E5D0216A28680007F4
:1016900003D5286800F0F00004E0D5F89400F022AB
:1016A00002EA1010814216D9084600F0EDFE00282B
:1016B00050D1286840F0080028602868216A20F08E
:1016C000F000084328606868E16920F47F4040EA40
:1016D0000120686015E0286840F00800286028684C
:1016E000216A20F0F000084328606868E16920F46E
:1016F0007F4040EA01206860206A00F0C5FE0028B3
:10170000D6D1FFF71FFFA968D44AC1F30311515C7A
:10171000C840D34908600F20FFF7C2FB2CE000BF90
:10172000FFF7A4FB801B02287ED828688007F7D526
:10173000286840F0080028602868216A20F0F0003E
:10174000084328606868E16920F47F4040EA01208E
:10175000686011E0B2E0FFE720F001002860FFF7C9
:1017600085FB064605E000BFFFF780FB801B0228D3
:10177000DAD828688007F7D42078C00748D0A8684E
:10178000C0F3810002281DD0A868C0F3810003289F
:1017900003D1E868C043800714D06068B0F5803F8B
:1017A00017D0B0F5A02F286817D020F4803028601B
:1017B000286820F4802028606068E0B1FFF756FBBD
:1017C000064614E02868800322D56068002875D09A
:1017D0001EE0286840F48030EDE740F48020286067
:1017E000F7E700BFFFF742FB801B64289CD82868FE
:1017F0008003F7D50CE0FFF739FB064605E000BF94
:10180000FFF734FB801B64288ED828688003F7D448
:101810002078800742D5A868C0F38100012816D03F
:10182000A868C0F3810000E0CEE0032804D1E86896
:1018300000F0030002280AD0E068002828681DD0C4
:1018400040F480702860FFF711FB06460BE0286823
:1018500040050BD5E0680028B9D007E0FFF706FB8C
:10186000801B022884D828684005F7D56868217C49
:1018700020F0FE4040EA016068600FE020F48070D4
:101880002860FFF7F3FA064605E000BFFFF7EEFA1F
:10189000801B0228AAD828684005F7D420780007C2
:1018A00029D560690028D5F8940013D040F00100D4
:1018B000C5F89400FFF7DAFA064606E023E100BF18
:1018C000FFF7D4FA801B02287ED8D5F89400800751
:1018D000F6D510E020F00100C5F89400FFF7C6FA35
:1018E000064604E0FFF7C2FA801B02286CD8D5F840
:1018F00094008007F6D42078400761D5A86D0026B3
:10190000C00008D4A86D40F08050A865A86D0126DD
:1019100000F08050009053480168C90511D4016857
:10192000804641F480710160FFF7A0FA074604E0A9
:10193000FFF79CFAC01B022846D8D8F80000C00563
:10194000F6D5A068012815D00528D5F8900016D046
:1019500020F00100C5F89000D5F8900020F00400B8
:10196000C5F89000A06841F28838B8B1FFF77EFA58
:1019700007460EE0D5F8900040F00100F0E740F097
:101980000400C5F89000F5E7FFF770FAC11B414568
:101990001AD8D5F890008007F6D50CE0FFF766FA64
:1019A000074604E0FFF762FAC11B41450CD8D5F8A1
:1019B00090008007F6D41EB1A86D20F08050A86575
:1019C0002078800629D500E084E0606A0028D5F8F8
:1019D000980011D040F00100C5F89800FFF746FAD2
:1019E000064604E0FFF742FA801B022872D8D5F8B9
:1019F00098008007F6D510E020F00100C5F89800A7
:101A0000FFF734FA064604E0FFF730FA801B02289D
:101A100071D8D5F898008007F6D4A06AF0B3A96809
:101A2000C1F3810103296FD00228286820F080705B
:101A300028601BD02868000106D42868800003D4E1
:101A4000E86820F00300E860E86807490840E860BB
:101A5000FFF70CFA044651E000100240FC34000885
:101A60000800002000700040FFFFEEFEFFF7FEF9C7
:101A7000064604E0FFF7FAF9801B02283BD82868E5
:101A80008001F7D4206B54F82C1F00011038084354
:101A9000218A1E4A490802EB415100E031E0A26868
:101AA00041EA02210843217D4FF07E42490802EBC2
:101AB00041610843217B40EAC160E860286840F04A
:101AC00080702860E86840F08070E860FFF7CEF929
:101AD000044606E00FE000BFFFF7C8F9001B02282C
:101AE00009D828688001F7D50BE000BFFFF7BEF9E1
:101AF000001B022802D90320BDE8F8832868800172
:101B0000F4D40020F8E7FFE70120F5E70000E0FF4C
:101B10002DE9F0411D4616460F46040003D094F807
:101B2000710018B108E00120BDE8F081002084F8C0
:101B30007000204600F0DCF8242084F87100206852
:101B4000016821F001010160204600F0FBFD012841
:101B5000EAD0606A10B1204600F062FD206881681A
:101B600041F4804181602068816821F4004139435B
:101B70008160700540EA054120680268064B1A4002
:101B80000A4302602068016841F0010101602046BB
:101B9000BDE8F04100F0A8BDFFFF00FC2DE9F041D9
:101BA000040005D00025A56294F85D0018B107E097
:101BB0000120BDE8F08184F85C50204600F044F834
:101BC000022384F85D302068016821F04001016043
:101BD000E0684FF4E066B04201D9002101E04FF423
:101BE0008051B0F5706F02D0B04200D0A562276B73
:101BF000012227B9B04201D9236300E02263D4E96E
:101C000001031843D4E9043633431843238B03F408
:101C100000731843E3691843236A1843A36A1843FF
:101C200023681860636B606AA66918430427E36839
:101C300007EA16463343184308432168486025667F
:101C400084F85D200020B4E7F0B50068144987B03F
:101C5000884223D11348816D41F400418165806D34
:101C6000022400F4004005904FF4004000250326B4
:101C700006278DE8F10069464FF09040FFF714F811
:101C800060028DE8F10069460748FFF70DF8202053
:101C90008DE8F10069460548FFF706F807B0F0BD8A
:101CA000003C0040001002400008004800040048CA
:101CB0004FF0E0210428086903D020F004000861F7
:101CC000704740F00400FAE710B5401EB0F1807F85
:101CD00001D3012010BD4FF0E02460610F21601797
:101CE00000F0A8FA0020A06107202061002010BDAC
:101CF0002DE9F041384B02680024384902260325BB
:101D00003748DFF8E08086B09A4220D18A6D42F4ED
:101D100080128A65896D02AA01F4801105919914D7
:101D2000CDE90016082782E8B0006946FEF7BCFF3F
:101D30000420CDE9000602AA694682E8B0002A48DC
:101D4000FEF7B2FF1020CDE90006694642E0DFF859
:101D50009CC007274FF09043624512D1086E40F4B3
:101D600080400866086E00F4804005904FF4B05043
:101D700014E002AA82E8B000FEF796FF06B0BDE8C4
:101D8000F081DFF86CC062450DD1886D40F4003001
:101D90008865886D00F4003005900E20CDE90006BE
:101DA00069461846E5E7134B9A42E7D18A6D42F43B
:101DB00080228A65896D02AA01F480210591302173
:101DC000CDE9001682E8B0006946FEF76DFF009687
:101DD000694601964046CCE70050004000100240A2
:101DE0000008004800040048000C0048003801408A
:101DF0000044004000480040FEE700EB8100006E18
:101E000000F0F84070478068C0F380007047806839
:101E1000C0F38000704770B54FF0007401F000739C
:101E200094FAA4F4B4FA84F4E3404FF0F87494FA0A
:101E3000A4F501F0F871B5FA85F500EB830021FAFD
:101E400005F50726AE4094FAA4F44369B4FA84F485
:101E5000E140B3438A401343436170BD00EB81000E
:101E6000016E21F0004111430166704730B51F48F3
:101E700089B01D490024C0E9001484600425C460B1
:101E8000C0E9044501218461C0E90741C0E9094175
:101E9000C462046344638463C463FEF707FD18B13E
:101EA000572113A000F0D1FD06A910480694FEF7B3
:101EB0006DFA18B15F210EA000F0C7FD1048009028
:101EC0000620CDE901047F200594CDE9030569468C
:101ED0000648FEF7D3FA002803D06C2104A000F0D6
:101EE000B4FD09B030BD0000000004506C000020BB
:101EF0002E2E2F5372632F6164632E630000000047
:101F00000004002A00B5104989B00E480860084650
:101F1000FEF787FE18B147210CA000F096FD0020C7
:101F20000090019002900390024604906946064892
:101F3000FEF7EAFD002803D0532104A000F085FD40
:101F400009B000BD00740040D80000202E2E2F5391
:101F500072632F6461632E630000000000B585B0DA
:101F6000142206496846FEF7CCF90021684600F0C5
:101F7000B9FD0349086005B000BD0000E834000861
:101F800000000020F0B53A4887B0C16C41F0040170
:101F9000C164C16C01F004010591C16C41F0800184
:101FA000C164C16C01F080010591C16C41F0010177
:101FB000C164C16C01F001010591C16C41F00201E5
:101FC000C164C16C01F002010591C16C41F00801CE
:101FD000C164C06C274E00F008004FF434650590D2
:101FE000002229463046FEF73BFF234F0022C02146
:101FF0003846FEF735FF00244FF40250CDE90004C7
:10200000694630460294FEF74FFE00950125CDE962
:102010000154694630460394FEF746FE28020090BC
:102020000220CDE901044FF0904603946946304602
:102030000494FEF739FEE802CDE900046946304613
:102040000294FEF731FE4FF44270CDE90004694678
:1020500038460294FEF728FEC0200090CDE90154D6
:10206000694638460394FEF71FFE07B0F0BD000036
:10207000001002400008004800040048134810B552
:10208000114901604FF48271416000214FF44072A8
:10209000C0E902124FF480220161C0E90512C1615A
:1020A000016207224162C0E90A120163082141630B
:1020B000FFF774FD002805D0BDE81040512104A0B1
:1020C00000F0C3BC10BD0000003C0040EC0000204C
:1020D0002E2E2F5372632F7370692E630000000041
:1020E0000F4810B50D4901604FF4E1314160002106
:1020F00081600C22C160C0E904128161C16101628A
:102100000B460A464162FFF703FD002805D0BDE8F3
:102110001040502103A000F098BC10BD00500040BA
:10212000500100202E2E2F5372632F75736172742D
:102130002E6300000F4810B50D4901604FF4E131E6
:102140004160002181600C22C160C0E904128161FC
:10215000C16101620B460A464162FFF7D9FC0028C3
:1021600005D0BDE81040652103A000F06EBC10BD95
:1021700000380140C80100202E2E2F5372632F75A6
:10218000736172742E6300000F4810B50D49016031
:102190004FF4E1314160002181600C22C160C0E94F
:1021A00004128161C16101620B460A464162FFF778
:1021B000AFFC002805D0BDE810407A2103A000F054
:1021C00044BC10BD00440040400200202E2E2F537E
:1021D00072632F75736172742E6300000F4810B51F
:1021E0000D4901604FF4E1314160002181600C2212
:1021F000C160C0E904128161C16101620B460A46F7
:102200004162FFF785FC002805D0BDE810408F2112
:1022100003A000F01ABC10BD00480040B802002026
:102220002E2E2F5372632F75736172742E6300000C
:10223000FEE770470907090E002806DA00F00F00D4
:1022400000F1E02080F8141D704700F1E02080F8D4
:10225000001470472DE9F041444C05468846E0687B
:102260000026810728680DD0E16801F00301814252
:1022700016D1A8B1E0686968C0F30210401C88421A
:102280000ED120E0012804D0022805D0032807D170
:1022900008E02168890701E021684905002907DB7A
:1022A00001265FE02168890302D421684903F5E72C
:1022B000E1686A686FF00F0321F0730103EB02120B
:1022C00011430143E160206820F080602060FEF748
:1022D000CDFD074605E000BFFEF7C8FDC01B022884
:1022E00037D820680001F7D4B8F1000F18D0B8F142
:1022F000010F1DD0287D4FF07E41400801EB40606A
:10230000A96840EA01202169194A11400843206167
:10231000206840F080602060FEF7A8FD07461AE0C4
:10232000A868297B000240EAC1602169114AECE7F4
:10233000288A1149400801EB4050A96840EA012071
:1023400021690E4AE1E700BFFEF790FDC01B02289D
:1023500001D9032606E020680001F5D52069A969A6
:10236000084320613046BDE8F081000000100240C3
:10237000FF80FFF9FF80FF070000E0FFFF809FFF65
:102380002DE9F0413D4C06468846E068002581076E
:1023900030680DD0E16801F00301814216D1A8B187
:1023A000E0687168C0F30210401C88420ED120E042
:1023B000012804D0022805D0032807D108E02168AD
:1023C000890701E021684905002907DB012551E063
:1023D0002168890302D421684903F5E7E16872683E
:1023E0006FF00F0321F0730103EB0212114301435D
:1023F000E160206820F080502060FEF737FD07463E
:1024000005E000BFFEF732FDC01B022829D8206876
:102410008000F7D4B8F1000F15D0307C4FF07E412A
:10242000400801EB4060B16840EA01206169144A4C
:10243000114008436061206840F080502060FEF742
:1024400015FD07460FE0B068317B000240EAC1602D
:1024500061690C4AECE700BFFEF708FDC01B0228CB
:1024600001D9032506E020688000F5D5606971690F
:10247000084360612846BDE8F0810000001002407A
:10248000FF80FFF9FF80FF07F8B51C4D06460024CA
:10249000A86DC00002D5FEF7BBFD0DE0A86D40F0B1
:1024A0008050A865A86D00F080500090FEF7B0FD48
:1024B000A96D21F08051A965B0F5007F04D0802E70
:1024C00007D94FF003040AE0802E08D9A02E01D8C6
:1024D00004E001D1022402E0702E00D1012408485A
:1024E000016821F0070121430160006800F0070046
:1024F000A04201D00120F8BD0020F8BD001002402C
:10250000002002404FF4FA74204600F0D5FAFBE7B1
:1025100010B5FEF7B1FCBDE8104000F0D9BA70B5B7
:10252000BAB0112023904FF48030249060202B907B
:1025300001260025CDE929650224CDE92D46282074
:10254000CDE930042F96329423A83394FFF780F816
:1025500000B1FEE70F2034900320CDE93505379513
:10256000042134A83895FEF73DFF00B1FEE744F2A0
:1025700017000F95109500904FF0805001961F9016
:102580000E95129502961020CDE903040005CDE9C1
:10259000064005946846FEF743FD00B1FEE74FF0A4
:1025A0000052D1100020FFF72FF84FF40070FEF713
:1025B000FDFC00B1FEE7FEF79FFF4FF47A71B0FB20
:1025C000F1F0FFF781FB0420FFF772FB00220F21DF
:1025D000501EFEF7B9FC3AB070BD00000D4801680E
:1025E00041F4700101600C48016841F00101016093
:1025F000002181600268094B1A4002608214C260A7
:10260000026822F48022026081610249C00380399D
:102610000860704788ED00E000100240FFFFF6EA16
:1026200090F82410C90706D001684A68836A22F42A
:1026300000321A434A6090F82410890706D50168D1
:102640004A68C36A22F480321A434A6090F8241020
:10265000490706D501684A68036B22F480221A43B1
:102660004A6090F82410090706D501684A68436B50
:1026700022F400421A434A6090F82410C90606D595
:1026800001688A68836B22F480521A438A6090F84A
:102690002410890606D501688A68C36B22F40052AB
:1026A0001A438A6090F82410490611D501684A68D7
:1026B000036C22F480121A434A60016CB1F5801F4A
:1026C00006D101684A68436C22F4C0021A434A608A
:1026D00090F82410090606D501684A68806C22F437
:1026E000002202434A607047F8B500260446466758
:1026F000FEF7BCFB0546206800686FF07E470007C8
:1027000008D52B4600224FF400112046009700F018
:1027100069F960B92068006840070AD52B46002295
:102720004FF480012046009700F05CF908B10320C7
:10273000F8BD202084F8710084F8720084F870607D
:102740000020F8BD2DE9F041044601688068236946
:10275000E669184363691025002733431843954AF7
:102760000B68954E334003430B6020684168E36873
:1027700021F44051194341602168A069914201D080
:10278000236A18438B6823F4306303438B608B4BBD
:1027900021688B4899420DD1D0F8880010F00300D1
:1027A00006D001285AD0022856D0032859D157E024
:1027B000012556E0834B99420BD1D0F8880010F0E8
:1027C0000C0047D0042849D0082845D00C2848D10F
:1027D00046E07D4B99420BD1D0F8880010F03000D4
:1027E00038D010283AD0202836D0302839D137E0D8
:1027F000764B99420BD1D0F8880010F0C00029D058
:1028000040282BD0802827D0C0282AD128E0704B20
:1028100099420ED1D0F8880010F440701AD0B0F56B
:10282000807F1BD0B0F5007F16D0B0F5407F18D167
:1028300016E0914215D1D0F8880010F4406009D01C
:10284000B0F5806F0AD0B0F5006F05D0B0F5406FDD
:1028500007D105E0002504E0022502E0042500E0A0
:1028600008255C4B00264FF4004091423DD135B124
:10287000022D07D0042D07D0082D10D107E0FEF758
:1028800041FE03E0184602E0FEF75CFEA8B3626872
:1028900002EB4201814202D8B0EB023F01D901278D
:1028A00075E0DFF834815DB1022D0CD0042D13D01A
:1028B000082DF4D150082905401846F1000105E023
:1028C000FEF720FE0AE050084449F5E70023FDF733
:1028D000E7FCA0F5407156E0FEF734FE6268010E99
:1028E0000302500818187141F0E7E1694FF6EF78DC
:1028F00081422FD1092DD2D200E048E0DFE805F077
:1029000006092005230505052600C8E7FEF7FAFDA0
:1029100001E0FEF707FE4100D4F8040001EB50018E
:10292000B1FBF0F080B2A0F110014145B7D84FF6ED
:10293000F0710140C0F3420001432068C16026E00D
:1029400027496068EAE7FEF7FDFDE4E74FF48031D0
:102950006068E3E7092DA2D2DFE805F006091E054D
:102960002205050525009AE7FEF7CCFD01E0FEF7FC
:10297000D9FD0146606801EB500100BFB1FBF0F0EA
:1029800080B2A0F11001414589D82168C86026664F
:1029900038466666BDE8F081606803EB5001EDE7FC
:1029A000FEF7D0FDE5E7616800EB5100B0FBF1F008
:1029B000E6E7000000800040F369FFEF00380140C7
:1029C000001002400044004000480040004C00401D
:1029D000005000400024F400FFFC0F00000024F42D
:1029E0000048E8012DE9F041984617460E46044696
:1029F000069D1DE0681C1BD02DB1FEF737FAA0EB39
:102A00000800A84214D92068016821F4D07101603F
:102A10002068816821F001018160202084F8710024
:102A200084F87200002084F870000320BDE8F08173
:102A30002068C06936EA000004D00020B842D9D02E
:102A40000020F3E70120F9E7FEE7FEE702E008C80F
:102A5000121F08C1002AFAD170477047002001E018
:102A600001C1121F002AFBD170470000FEF70CFACB
:102A7000FFF755FDFFF786FAFFF7F8F9FFF742FA7F
:102A8000FFF7FCFAFFF72CFBFFF754FBFFF77CFB8B
:102A9000FFF7A4FB012251020348FEF7E1F9FFF71B
:102AA0005DFA00F010F8FEE700080048014600203B
:102AB000842900D0C81C704710B500B9012000F06F
:102AC000FDFA002010BD10B500F01EFB002010BD67
:102AD00010B500F035FC012803D0BDE8104000F02F
:102AE000EDBB10BD3EB504460D46B0F90800FFF73A
:102AF000DDFF02A9CDE90001208A2B4682B2D4E98C
:102B0000001000F0F1FB012801D000203EBD02982A
:102B10003EBD00002DE9F041184C0F460546E66821
:102B20002068001D00F014FA38B9206890F82C10C5
:102B300001208840216981432161681C07D137B198
:102B40002168BDE8F0410E48091D00F039BA20683F
:102B50003544B5424560216805D2A06BBDE8F0411F
:102B6000091D00F015BA606B091D00F011FAA06A8A
:102B7000854200D2A562BDE8F0810000300000204F
:102B8000C40F00202DE9F041054600F025FA2E4C37
:102B9000A068401CA06020682C4F10B1606940B351
:102BA0002DE02560A068012829D1002606EB8600CB
:102BB00007EB800000F0DEF9761C072EF6D32348E1
:102BC0008C3000F0D7F92148A03000F0D3F91F482D
:102BD000B43000F0CFF91D48C83000F0CBF91B48E5
:102BE000DC3000F0C7F919488C3060631430A06302
:102BF00005E02068E96AC06A884200D82560606AFA
:102C0000401C6062E96A012022698840104320610B
:102C100001EB810007EB8000291D00F0D1F900F0E5
:102C2000FBF9606900280CD02068E96AC06A884214
:102C300007D207494FF080500860BFF34F8FBFF3B2
:102C40006F8FBDE8F081000030000020E80E00200A
:102C500004ED00E070B5114E114C17E000F088FA59
:102C60003068B8B100F0DEFB00F0B6F9F068C56876
:102C7000281D00F06DF9A068401EA0606068401E2D
:102C8000606000F0C9F9284600F00CF86068002880
:102C9000E4D170BD00F0C6FBF8E70000B00F0020E3
:102CA0003000002010B50446006B00F0C9F9204642
:102CB000BDE8104000F0C4B90F4840F6B8314207F3
:102CC00005D0C01D0C4A20F00700821A891A0B4A51
:102CD00000230144C2E900030839103A21F007013A
:102CE00011604B600B600B1AC0E9001393604FF04A
:102CF00000405360D0607047300300201C0000206B
:102D0000074C4FF08056074DFFF7A4FF20680128BD
:102D1000FAD92E60BFF34F8FBFF36F8FF4E7000037
:102D2000E80E002004ED00E02DE9F0479A46DDE9C9
:102D3000098481466FF00303206B03EB8202104489
:102D4000089D20F00706700707D0502080F31188F7
:102D5000BFF34F8FBFF36F8FFEE723180A5C83F832
:102D600034200A5C12B1401C1028F6D3002784F8E6
:102D70004370072D00D30625E562C4E91157201DD5
:102D800000F003F904F1180000F0FFF82461C5F128
:102D900007006462A061E76484F8507052464946B7
:102DA000304600F0BFF82060B8F1000F01D0C8F83D
:102DB0000040BDE8F087000030B5114900E0114641
:102DC0000A688242FBD34B685C18844203D1406896
:102DD00018444860084643681C18944209D1084CBE
:102DE000103C2468A24209D052681A4442600A6822
:102DF00012680260814200D0086030BD0460F9E7CB
:102E00001C0000200648416B096829B1416BC96864
:102E1000C9684968816270474FF0FF31FAE70000E6
:102E20003000002008484068401C4FF0500080F3FC
:102E3000118804D0BFF34F8FBFF36F8FFEE7BFF34E
:102E40004F8FBFF36F8FFEE7240000202DE9F04184
:102E50000546002700F08CF9314E306808B9FFF7BD
:102E60002BFFF06805424BD1C5B3083568070ED07B
:102E700005F00700C0F108000544680707D050209E
:102E800080F31188BFF34F8FBFF36F8FFEE72DB331
:102E90007068854234D82248103001460C6801E041
:102EA00020460C466168A94202D221680029F7D168
:102EB00031688C4224D00768216801606068083757
:102EC000411B10290FD96019420708D0502080F308
:102ED0001188BFF34F8FBFF36F8FFEE710E04160A3
:102EE0006560FFF769FF61687068401A7060B268DA
:102EF000904200D2B060F06801430020C4E90001B4
:102F000000F090FA780707D0502080F31188BFF3C3
:102F10004F8FBFF36F8FFEE73846BDE8F0810000AA
:102F20000C00002010B5031F4FF080741C601B1FA5
:102F300021F001011960191F044B0B6014390A605C
:102F4000091F6FF0020244380A6010BD252E0008E8
:102F5000D0E9013201699A60D0E901235A604A68D8
:102F6000824201D182684A60002202610868401EE4
:102F70000860704700F108014FF0FF32C0E901120C
:102F8000C16001610021016070470021016170474B
:102F900030B50B685A1C02D000F1080202E0026949
:102FA00004E02246546825689D42FAD953684B6074
:102FB00099608A60516008610168491C016030BDF8
:102FC00042684A6093688B609368596091600861B9
:102FD0000168491C01607047502080F31188BFF3DD
:102FE0004F8FBFF36F8F0A494868401C4860012823
:102FF0000CD10848006810F0FF0F07D0502080F374
:103000001188BFF34F8FBFF36F8FFEE7704700004B
:103010002400002004ED00E00849486828B1401E63
:10302000486001D180F311887047502080F31188E7
:10303000BFF34F8FBFF36F8FFEE700002400002027
:1030400070B5002827D0144DA0F108046168E86825
:10305000014207D1502080F31188BFF34F8FBFF397
:103060006F8FFEE722683AB1502080F31188BFF3DA
:103070004F8FBFF36F8FFEE78143616000F078F8F8
:1030800060686968084468602046FFF795FEBDE8FF
:10309000704000F0C7B970BD0C00002006484FF426
:1030A0007A710068B0FBF1F14FF0E020491E4161F8
:1030B00007210161704700000800002010B50200E0
:1030C00014D00F48006B38B1502080F31188BFF343
:1030D0004F8FBFF36F8FFEE700F04AF800211046D4
:1030E000FFF718FD00F09EF9002807D105494FF0C1
:1030F00080500860BFF34F8FBFF36F8F10BD00008B
:103100003000002004ED00E01CB515480024CDE996
:1031100000402346802213A1144800F0E5F801285E
:1031200009D0401C1AD1502080F31188BFF34F8F73
:10313000BFF36F8FFEE7502080F31188BFF34F8FEE
:10314000BFF36F8F06484FF0FF312C3881620121A9
:103150004161C460BDE81C4000F040B81CBD0000E7
:103160005C00002049444C4500000000012D00088F
:103170000248016B491C01637047000030000020C9
:103180001448016B11B10121C16170470021C16177
:103190000169B1FA81F1C1F11F0101EB81020E4910
:1031A00051F822306BB101EB820101F108034A684A
:1031B00052684A609A4201D152684A60D1680160FF
:1031C0007047502080F31188BFF34F8FBFF36F8F8C
:1031D000FEE7000030000020E80E00201CB5324859
:1031E0000168324A914207D1502080F31188BFF321
:1031F0004F8FBFF36F8FFEE700682C49491E88424E
:1032000007D1502080F31188BFF34F8FBFF36F8F2A
:10321000FEE7274908780190FF20087008788DF8AC
:1032200000009DF800009DF8002000F0F0009042A2
:1032300007D0502080F31188BFF34F8FBFF36F8FFB
:10324000FEE79DF800001B4A00F0500010700720B8
:10325000906005E09DF800305B008DF80030401E66
:103260009DF800301B06F5D4000200F4E060906089
:10327000019808700C482030016841F47001016029
:10328000016841F070410160FFF708FF00205060C5
:10329000FCF7B6FF0848016841F040410160FCF7C7
:1032A0009FFF00201CBD000000ED00E071C20F4137
:1032B00000E400E02400002034EF00E010B55020CE
:1032C00080F31188BFF34F8FBFF36F8F00F046F884
:1032D00018B104494FF080500860002080F3118835
:1032E00010BD000004ED00E02DE9FF5F8346DDE93D
:1032F0000E87994616468A469000FFF7A7FD0500FF
:103300001AD05420FFF7A2FD040012D0256300213B
:10331000CDE90241CDE900874B4632465146584639
:10332000FFF702FD2046FFF72DFC012004B0BDE8A9
:10333000F09F2846FFF784FE4FF0FF30F6E70000CD
:103340000548416919B1006B18B100207047012090
:103350007047022070470000300000202DE9F04146
:103360002E4C0027206B40B1A069401CA061E06991
:1033700000B101273846BDE8F081E668761CE660BA
:1033800013D1606B006838B1502080F31188BFF30F
:103390004F8FBFF36F8FFEE7606BA16B6163A0631C
:1033A000206A401C2062FFF72DFDA06ADFF87080C4
:1033B000864209D3606B006880B1606BC068C568E5
:1033C000686886420DD2A0622068C06A00EB800166
:1033D00058F821000128CAD90127C8E74FF0FF306B
:1033E000F1E7281DFFF7B4FDA86A18B105F1180030
:1033F000FFF7AEFDE86A0121226981401143216196
:1034000000EB800108EB8100291DFFF7D9FDE86A78
:103410002168C96A8842CDD30127CBE7300000205C
:10342000E80E00202DE9F0472C4D00242746286B9C
:1034300038B1FFF7D1FD286B401E2863286B40B1DF
:1034400046E0502080F31188BFF34F8FBFF36F8F9A
:10345000FEE7A968224E0120D1B3A6F1B409804647
:103460003068E8B1F068C46804F11800FFF770FD37
:10347000201DFFF76DFDE06A2A6908FA00F111438B
:10348000296100EB800109EB8100211DFFF798FD08
:10349000E06A2968C96A8842E2D3C5F81C80DFE780
:1034A0000CB1FFF7AFFCAC6944B14646FFF756FFDD
:1034B00000B1EE61641EF9D10020A861E86938B15D
:1034C0000849012738070860BFF34F8FBFF36F8F9C
:1034D000FFF7A2FD3846BDE8F0870000300000206D
:1034E0009C0F002004ED00E044350008052500088D
:1034F000000000000000000080000000000000004C
:10350000000000000102030406070809A08601006C
:10351000400D0300801A060000350C0040420F00E9
:1035200080841E0000093D0000127A000024F4008F
:1035300000366E010048E801006CDC02000000006B
:103540000102030464656661756C745461736B00F9
:1035500070350008000000206C0000004C2A0008B4
:10356000DC3500086C0000206C1300005C2A0008A9
:10357000000000000000000000093D000000000005
:10358000000000000000000000000000000000003B
:103590000000000000000000AAAAAAAA0000000083
:1035A000000000000000000000000000000000001B
:1035B000000000000000000000000000000000000B
:1035C00000000000000000000000000000000000FB
:0C35D000000000000000000000000000EF
:04000005080001AD41
:00000001FF
